:020000040000fa
:080000000002040000000000f2
:020000040000fa
:10000800cc020000cc020000cc020000cc020000b0
:10001800cc020000cc020000cc020000cc020000a0
:10002800cc020000cc020000cc020000cc02000090
:10003800cc020000cc020000cc020000cc02000080
:10004800cc020000cc020000cc020000cc02000070
:10005800cc020000cc020000cc020000cc02000060
:10006800cc020000cc020000cc020000cc02000050
:10007800cc020000cc020000cc020000cc02000040
:10008800cc020000cc020000cc020000cc02000030
:10009800cc020000cc020000cc020000cc02000020
:1000a800cc020000cc020000cc020000cc02000010
:1000b800cc020000cc020000cc020000cc02000000
:1000c800cc020000cc020000cc020000cc020000f0
:1000d800cc020000cc020000cc020000cc020000e0
:1000e800cc020000300a0000cc020000cc02000064
:1000f800cc020000cc020000cc020000cc020000c0
:10010800cc020000cc020000cc020000cc020000af
:10011800cc020000cc020000cc020000cc0200009f
:10012800cc020000cc020000cc020000cc0200008f
:10013800cc020000cc020000cc020000cc0200007f
:10014800cc020000cc020000cc020000cc0200006f
:10015800cc020000cc020000cc020000cc0200005f
:10016800cc020000cc020000cc020000cc0200004f
:10017800cc020000cc020000cc020000cc0200003f
:10018800cc020000cc020000cc020000cc0200002f
:10019800cc020000cc020000cc020000cc0200001f
:1001a800cc020000cc020000cc020000cc0200000f
:1001b800cc020000cc020000cc020000cc020000ff
:1001c800cc020000cc020000cc020000cc020000ef
:1001d800cc020000cc020000cc020000cc020000df
:1001e800cc020000cc020000cc020000cc020000cf
:1001f800cc020000cc020000cc020000cc020000bf
:10020800cc020000cc020000cc020000cc020000ae
:10021800cc020000cc020000cc020000cc0200009e
:10022800cc020000cc020000cc020000cc0200008e
:10023800cc020000cc020000cc020000cc0200007e
:10024800cc020000cc020000cc020000cc0200006e
:10025800cc020000cc020000cc020000cc0200005e
:020000040000fa
:100400000f0e21000eff27000e01880000000000e3
:1004100000012000200288000c00070060ca2000b4
:10042000010020000f000700000020000000e00095
:100430000200320000000200000000001a0b02005f
:10044000000000000040da000000fe002000200054
:100450000000e0000200320010002000900188003f
:1004600000000600a1028800800078000000eb0078
:100470001a003700e280400054a0b4009101ba0095
:10048000e280400054a0b4009102ba00e280400033
:1004900054a0b4000002eb00472bde00f507b200c9
:1004a000a6018800602ce10008003a000049eb003a
:1004b0000201e800020039003420ec0002f0a00044
:1004c0008301e900f9ff3e00040037006128e100e4
:1004d000010032000082eb00040007001101ba00a5
:1004e0000200e000e3ff3a000000060004d0a30091
:1004f000e20f49001c003900810278003549ba003a
:100500000201e800020039003420ec0002f0a000f3
:100510008301e9000f0032002549ba000201e8001a
:10052000020039003420ec0002f0a0008301e90051
:10053000080032000400e0000600320015c9ba00cd
:100540000201e800020039003420ec0002f0a000b3
:100550008301e9008180e80054a0b4000300e000ba
:10056000e2ff3a00000006009102ba000559780047
:100570008301e900f7ff3200c82ade000559780040
:100580008301e900f3ff32000400e000f1ff3200d4
:1005900011d9ba00eeff37000040da000000fe007b
:1005a000889fbe008a9fbe008c1f7800cd00070088
:1005b000d400330003866c006450e1002e0032004a
:1005c0006420e100330032006150e1002f0032006e
:1005d0006120e1003100320085855500eb07b00055
:1005e000090020000804200005003700080444002a
:1005f00089844c000a0031000603430087834b00c6
:100600000001530081815b00f8ff33000203be004c
:100610000800a0000804440089844c00f6ff39005b
:10062000c639dd0083017300010032001300200091
:100630008904d1000884d3000998a3000500320082
:100640000800a7000300a0008904d1000884d3009b
:100650008b05e8008904d1000884d3000001eb0079
:100660000281d2006400070001f0a1000cf0a70095
:1006700001f0a000ac0037006420e100ae003200c1
:100680000801be000200be00f7ff37006120e10054
:10069000a90032006000b800f3ff3700000020001e
:1006a00001f82700f0ff3700839f68000100e00099
:1006b00002003d0060001000e08018000300e00030
:1006c00002003d0060011100e0811900d100070027
:1006d0004f00e00002003b0060001000e0801800c6
:1006e00000000600f4ff2f00da0037000001be0012
:1006f000670007000470a70003f0a1006509b100be
:10070000160032000d0035006828e10006003500b3
:10071000f0ff2f00f1ff27000300e00013003b0073
:100720000100280000000500000040008180480012
:100730008502e900fcff3a0008003700f88f42000c
:1007400002003c008000eb00000005008100d100a9
:100750000080d3008502e800fcff3a000300e000bf
:1007600002003b0060001000e0801800000006005e
:100770000001be00460007000470a70003f0a100be
:1007800003f8a30013003a006509b100100032001d
:10079000090035006928e100020035000100280049
:1007a0000000050000004000818048008502e9004b
:1007b000fcff3a0000000600f88f420005003500fb
:1007c0008100d1000080d3008502e800fcff3a00e0
:1007d000000006008000eb00000005004f89de00ed
:1007e00082017800b60037006011b800c4003700fd
:1007f0000400200097003700810020006180550030
:100800000b003d000b00200061fe2f000100e10005
:100810001d00340082817100610164008904d100ef
:100820000884d3000000e800faff3a0071002000bd
:1008300061006400030070000200600009003200e3
:1008400061044400e0844c000988a50005003200e2
:100850008b05e8006808e10002003a008904d10035
:100860000884d300f20f20000258e10005003d008b
:10087000c75ddd00f907b2008980750008007800c7
:10088000000006000bf827008b0078000000050030
:10089000c70ade00f107b200f50fb200080032000f
:1008a000e1cf4200020032000170a00024000500e8
:1008b000810f7000010032000408050044000500ab
:1008c000810f700002003a00140005008502e90063
:1008d0000000400081c04800fcff3b000170a00008
:1008e000240005000004be00e9ff07000003be006d
:1008f0000405be000200be00e5ff0700844f75003e
:10090000000006000200be006450e1000500360051
:100910006420e100020036000968a30001003a00eb
:100920000800be000160a0004f0678004f05be0021
:100930004f04be0000000600f0ff2f00f1ff27006b
:10094000f9ff3700889fbe008a9fbe008c1f780089
:10095000e4ff0700ebff330003866c006450e10006
:10096000240032006420e100270032006150e100e1
:10097000220032006120e100210032008b8542001c
:10098000eb07b1000134b800003ab8000804420097
:1009900089844a00013ab8000030b80088804000dd
:1009a00009014a0004003300000040008180480033
:1009b000020149008b05e900c909dd0083017000cf
:1009c0000100320013002000c814de004814dd00ce
:1009d0004709de001200b200c808de00088470007b
:1009e00085ff070001f0a1000cf0a70001f0a000b6
:1009f000cdff37006120e100cfff32000801be00cb
:100a00000200be00f7ff37006150e100fcff3a0032
:100a1000c9ff37006022b800060220000000d000a5
:100a20008180d2000482d2008582d2000000a00022
:100a30000202520083825a00030031000202420087
:100a400083824a000000a1000603e900f3ff3a0098
:100a500000000600889fbe008a9fbe00841f7800a9
:100a6000a0ff07004f00780011003300f0ff2f00b7
:100a7000838f6c0006003b00040565000a00a70098
:100a80000800370009f0a600100020000800370019
:100a9000820f5400838f5c00030039001000200097
:100aa00001003e000000200009f0a7000000ea005d
:100ab0004f05be004f04be000000e000000006002d
:100ac000881f7800030478000300e00007003d0061
:100ad00060001000e080180060011900e08119003a
:100ae00002003b0001f02d00030037000400070066
:100af00008f0a70001f0a0004f04780000000600f5
:100b0000889fbe008a9fbe000082700004027100b0
:100b100004827100260032000004be000200be0004
:100b20006011b8006b092000950220000182cf00ff
:100b30000a0039000541b1000082cf0007003900ea
:100b40000541b1000982cf00040039000541b10020
:100b50000882cf00010039000541b1000542520072
:100b6000120032000a003b008281710061016400c2
:100b70008100d1000080d3008984d3000884d30091
:100b80008b05e8000442e800f7ff3a000700370051
:100b90000804440089844c0000004800818048001b
:100ba0008b05e9000442e900f9ff3a0012ff070053
:0c0bb0004f05be004f04be000000060010
:020000040000fa
:100bbc000200fa0004002100144278008482fb0039
:100bcc0014002100144278000482fb004822dd004e
:100bdc0004827200040f78001e027800e00f5200ad
:100bec0011003d001e0278006123b80004002000b3
:100bfc00f5ff2f000602420087824a000400be0067
:100c0c00f3fe07000002be000200200003122400c5
:100c1c000400be005ffe07000002be0024868800b0
:100c2c00358688000c0037001e0278000500200075
:100c3c000400be00e9fe07000002be000200200016
:100c4c00031224000400be0052fe07000002be0086
:100c5c0024868800358688002486800035868000ae
:100c6c006011b8000400be00defe07000002780030
:100c7c00e00f5200090032002400210014427800d9
:100c8c008482fb0034002100144278000482fb00b3
:100c9c004822dd0004827200448688004400210052
:100cac001442780004407800caf0b70054002100c8
:100cbc001442780004407800cbf0b70064002100a7
:100ccc001442780004407800ccf0b7000080fa00a1
:100cdc00000006000200fa00881f780014848000cf
:100cec002584800018c0b3006011b8000400be0059
:100cfc0079fe070000027800e00f520001003d0071
:100d0c000044eb00e04f54000d00320014848000ce
:100d1c002584800002002000031224000400be0081
:100d2c0005ff07000002be000400be006cfe0700b9
:100d3c000002be0004027800040f78000c0037009b
:100d4c0014848000258480000200200003122400fb
:100d5c000400be00f8fe07000002be000400be0046
:100d6c005ffe07000002be0004027800040f78004a
:100d7c001e027800044278000440780041f0b7006d
:100d8c001e0278004822de000442780004407800fd
:100d9c0042f0b700548480006584800018c0b30012
:100dac006011b8000400be004bfe07000002780082
:100dbc00e00f520001003d000044eb00e04f5400f6
:100dcc000c003200548480006584800002002000f6
:100ddc00031224000400be00d7fe07000002be0070
:100dec000400be005ffe07000002be00040f780086
:100dfc000c003700548480006584800002002000c1
:100e0c00031224000400be00cbfe07000002be004b
:100e1c000400be0032fe07000002be00040278008f
:100e2c00040f78001e027800044278000440780019
:100e3c0043f0b7001e0278004822de00044278001e
:100e4c000440780044f0b70034848000458480006e
:100e5c0018c0b3006011b8000400be001efe0700ed
:100e6c0000027800e00f520001003d000044eb004e
:100e7c00e04f54000c003200348480004584800024
:100e8c0002002000031224000400be00aafe07008a
:100e9c000002be000400be0032fe07000002be00cd
:100eac00040f78000c0037003484800045848000e7
:100ebc0002002000031224000400be009efe070066
:100ecc000002be000400be0005fe07000002be00ca
:100edc0004027800040f78001e02780004427800a7
:100eec000440780045f0b7001e0278004822de006e
:100efc00044278000440780046f0b7007484800007
:100f0c008584800018c0b3006011b8000400be00d6
:100f1c00f1fd070000027800e00f520001003d00d7
:100f2c000044eb00e04f54000c003200748480004d
:100f3c008584800002002000031224000400be00ff
:100f4c007dfe07000002be000400be0005fe070087
:100f5c000002be00040f78000c003700748480007f
:100f6c008584800002002000031224000400be00cf
:100f7c0071fe07000002be000400be00d8fd070091
:100f8c000002be0004027800040f78001e027800f4
:100f9c00044278000440780047f0b7001e02780045
:100fac004822de00044278000440780048f0b70084
:100fbc0094848000a584800018c0b3006011b80030
:100fcc000400be00c4fd070000027800e00f5200d0
:100fdc0001003d000044eb00e04f54000c003200d7
:100fec0094848000a5848000020020000312240059
:100ffc000400be0050fe07000002be000400be004c
:10100c00d8fd07000002be00040f78000c0037006a
:10101c0094848000a5848000020020000312240028
:10102c000400be0044fe07000002be000400be0027
:10103c00abfd07000002be0004027800040f78002c
:10104c001e027800044278000440780049f0b70092
:10105c001e0278004822de0004427800044078002a
:10106c004af0b700b4848000c584800002002000e0
:10107c00031224000400be002ffe07000002be0075
:10108c000400be00b7fd07000002be00040f78008c
:10109c001e02780004427800044078004bf0b70040
:1010ac001e0278004822de000442780004407800da
:1010bc004cf0b700f484800005858000020020000d
:1010cc00031224000400be001bfe07000002be0039
:1010dc000400be00a3fd07000002be00040f780050
:1010ec001e02780004427800044078004df0b700ee
:1010fc001e0278004822de0004427800044078008a
:10110c004ef0b700d4848000e584800002002000fb
:10111c00031224000400be0007fe07000002be00fc
:10112c000400be008ffd07000002be00040f780013
:10113c001e02780004427800044078004ff0b7009b
:10114c001e0278004822de00044278000440780039
:10115c0050f0b70014858000258580000200200027
:10116c00031224000400be00f3fd07000002be00c1
:10117c000400be007bfd07000002be00040f7800d7
:10118c001e027800044278000440780051f0b70049
:10119c001e0278004822de000442780004407800e9
:1011ac0052f0b70034858000044278000440780087
:1011bc0053f0b700348580004822de0004427800ea
:1011cc000440780054f0b700548580000442780045
:1011dc000440780055f0b700548580004822de00aa
:1011ec00044278000440780056f0b7004485800033
:1011fc00044278000440780057f0b7004485800022
:10120c004822de00044278000440780058f0b70011
:10121c0064858000044278000440780059f0b700df
:10122c00648580004822de00044278000440780087
:10123c005af0b700748580000442780004407800ae
:10124c005bf0b700748580004822de000442780011
:10125c00044078005cf0b70084858000044278007c
:10126c00044078005df0b700848580004822de00e1
:10127c0004427800044078005ef0b700948580004a
:10128c0004427800044078005ff0b7009485800039
:10129c004822de00044278000440780060f0b70079
:1012ac00a4858000044278000440780061f0b70007
:1012bc00a48580004822de000442780004407800b7
:1012cc0062f0b700b48580000442780004407800d6
:1012dc0063f0b700b48580004822de000442780039
:1012ec000440780064f0b700c485800004427800a4
:1012fc000440780065f0b700c48580004822de0009
:10130c00044278000440780066f0b700d485800071
:10131c00044278000440780067f0b700d485800060
:10132c004822de00044278000440780068f0b700e0
:10133c00c40b2100144278000440780069f0b70017
:10134c00d40b210014427800044078006af0b700f6
:10135c00e40b210014427800044078006bf0b700d5
:10136c00f40b210014427800044078006cf0b700b4
:10137c00040c210014427800044078006df0b70092
:10138c00140c210014427800044078006ef0b70071
:10139c00240c210014427800044078006ff0b70050
:1013ac00340c2100144278000440780070f0b7002f
:1013bc004f0478000080fa00000006000400fa00d8
:1013cc0020479800314798001602a9000002eb0054
:1013dc00e41088002e4290000482fb00d410880098
:1013ec0016c2a80016e2a9001702a9001722a9002c
:1013fc001742a9001762a9001782a80017a2a9001a
:10140c0084108000044f780018c2a9002628a90077
:10141c000628a9003e429000674262000482fb004d
:10142c00670262004422dd00c6428000f5f82f00fe
:10143c008502630004827200c44288002628a8003a
:10144c0017e2a80014c0b300044078000080fa0032
:10145c0000000600801f7800849fbe00869fbe009f
:10146c003200f800100020009001880000000000fd
:10147c000600fa00c51080000402200004826200fd
:10148c00e00f520027003a000042eb0004407800c5
:10149c0040f0b7000042eb000440780081f0b70048
:1014ac00c410800064026200e00f520003003a0096
:1014bc0084108000444798004e0037008410800050
:1014cc004447980014082100144278000483fb0060
:1014dc001504210085024300954278008582fb00ab
:1014ec00951088000442e8000440780081f0b700b1
:1014fc000002eb00040f7800050037001e0fe80017
:10150c00440620009e027800848f52003600320080
:10151c00c410800061026200e00f5200f7ff3a0035
:10152c0034003700c410800064026200e00f5200e7
:10153c000c003a0004042100144278008483fb0060
:10154c008510800085427800060021000683430048
:10155c00054b78000442e8000440780040f0b700e6
:10156c00240037008410800054479800c510800078
:10157c000400280004826200e00f52001d003a00b3
:10158c0014082100144278000483fb001504210088
:10159c0085024300954278008582fb0095108800f7
:1015ac000442e8000440780081f0b7000002eb0030
:1015bc0014079800070037001e0290000402e80090
:1015cc00140798009e02900044062000848f52005d
:1015dc0007003200c410800061026200e00f52006c
:1015ec00f5ff3a000300370000000000010037004f
:1015fc0000000000b510800004002100048262008d
:10160c00e00f520001003a001782a8000628a9003a
:10161c000080fa003200f9004f03be004f02be00fa
:10162c004f007800004006000600fa0010079800f2
:10163c002107980024012000343a8800243a8000c5
:10164c000460a1000470a100243a8800253a8000af
:10165c0004fe2f0004826200243a88003600200029
:10166c0084072000a509200037742000844b7800e3
:10167c00854b7800864b7800143a80000403780080
:10168c000600a000640420007505200027742000cb
:10169c00844b7800854b7800864b78000000000066
:1016ac00153a8000040027008482620004002300a5
:1016bc00848f5200faff3a0000000000153a8000b7
:1016cc000402200004826200e00f5200fbff320093
:1016dc000002eb00040f78007501070034fd0700d1
:1016ec001e027800e00f52000e003a007086800057
:1016fc0081868000928680006a000700a0868000a8
:10170c00b1868000c286800052000700d08680001f
:10171c00e1868000f28680004e0007001e0fe80074
:10172c00220037001e027800e10f52000e003a0032
:10173c0070868000818680009286800045000700bc
:10174c00a0868000b1868000c2868000550007000c
:10175c00d0868000e1868000f28680003d00070084
:10176c001e0fe800110037001e027800e20f520035
:10177c000e003a0070868000818680009286800080
:10178c0034000700a0868000b1868000c2868000ed
:10179c0030000700d0868000e1868000f286800051
:1017ac00400007000002eb00040f7800803e200090
:1017bc00b900070047fd0700c8ff37000800fa0012
:1017cc001007980021079800320798001400200099
:1017dc00040f78006e4290000482fb009e02780099
:1017ec00042add00040f78001e0290009e02900077
:1017fc00950278009e827200050a78000080fa003b
:10180c00000006000800fa00100798002107980055
:10181c003207980014002000040f78006e429000ec
:10182c000482fb009e027800042add00040f78007d
:10183c001e0290009e02900095027800050378002d
:10184c009e82ea0085026300050a78000080fa0097
:10185c00000006000800fa00100798002107980005
:10186c003207980014002000040f78006e4290009c
:10187c000482fb009e027800042add00040f78002d
:10188c002e029000ae0290009502780005037800bd
:10189c009e82ea0085026300050a78000080fa0047
:1018ac00000006000800fa001007980021079800b5
:1018bc003207980014002000040f78006e4290004c
:1018cc000482fb009e027800042add00040f7800dd
:1018dc002e029000ae029000950278009e8272005b
:1018ec00050a78000080fa00000006000800fa00e3
:1018fc001007980021079800320798001400200068
:10190c00040f78006e4290000482fb009e02780067
:10191c00042add00040f78002e02900014027800d7
:10192c009e0262006e4290000482fb00042ade00dc
:10193c0004427800044078000080fa0000000600a1
:020000040000fa
:10194c00ce1000001200000082000000200e2200c9
:10195c000e030000200e22000e020000400e42007a
:10196c000e04000000100000820000008200000045
:10197c00000000000000000000000000000000005b
:10198c00000000000000000000000000000000004b
:10199c00000000000000000000000000000000003b
:1019ac00000000000000000000000000000000002b
:1019bc00000000000000000000000000000000001b
:1019cc00000000000000000000000000000000000b
:1019dc0000000000000000000000000000000000fb
:1019ec0000000000000000000000000000000000eb
:1019fc0000000000000000000000000000000000db
:101a0c0000000000000000000000000000000000ca
:101a1c0000000000000000000000000000000000ba
:101a2c00821000004c000000820000000000a000aa
:101a3c0041000000404100000020c1000000a00057
:101a4c00c09a9900c941000000803f0000000000ce
:101a5c00400000004040000000804000c8002c0006
:101a6c0001900100f401c40009a609004c09b8005a
:101a7c000b1c0c00800ce80003320a0018172a001b
:101a8c002b4c50000000a0004100000000000000a2
:081a9c00000000000000000042
:020000040000fa
:101aa4000800fa0030079800be02900004192000d4
:101ab400110009008402d80000027800140798007d
:101ac4000002eb00040f780016003700011020001c
:101ad4003e009000190007000002be0004027800d6
:101ae4008400780000032800340007001000200060
:101af4003d000700010037000000000004408000a2
:101b04004322de00614262000482fb002407980045
:101b14002e029000e10f5200f7ff3a005100070037
:101b24001e0fe8001e0290009e027800848f52006f
:101b3400e6ff34000080fa00000006000800fa0006
:101b440020079800310798003e029000cfa2de00e3
:101b54000401be0000a0250021262000d1fa0700c0
:101b64000002be000403be002e029000cfa2de00dd
:101b74008438b8008629b80082007800010040004b
:101b840006037800040278000432b800050040001f
:101b940080027800823e2000030020000400be0082
:101ba400c0fa07000002be00048fbe001e02be0081
:101bb4000400be000080fa00000006000400fa00e1
:101bc400000f7800110798000002eb000408880059
:101bd4001e029000140888001e0278002408880061
:101be4000080fa00000006000200fa00000f7800ee
:101bf4000068a9001e02780004427800674262006f
:101c040067426200674262000482fb00670262006e
:101c14004c22dd0006428000f5ff280085026300a7
:101c240004827200044288009e0278006882620086
:101c34004322de0004427800614262000482fb0019
:101c4400610262004322dd000641800075ff2f001f
:101c54008502630004827200044188000080fa0057
:101c6400000006000000fa002068a90005e1a900b0
:101c74000068a9000080fa00000006000200fa00d3
:101c8400000f78001e027800040888000080fa0023
:101c9400000006000000fa00040880000400780038
:101ca4000080fa00000006000000fa000068a900a5
:101cb4000080fa00000006000000fa000002eb00b9
:101cc4007473880074738000747288007472800066
:101cd400f4718800f471800074718800747180005c
:101ce400f4708800f4708000747088004001200053
:101cf4006bff0700708680008186800092868000da
:101d0400c2fe0700a0868000b1868000c2868000e3
:101d1400befe0700d0868000e1868000f286800047
:101d2400bafe070011c0b300b0c0b300a5fd0700a0
:081d34000080fa000000060027
:020000040000fa
:0200000401f009
:04000c0078ff000079
:020000040000fa
:0200000401f009
:040010007dff000070
:00000001FF
