:020000040000fa
:080000000002040000000000f2
:020000040000fa
:10000800c8020000c8020000c8020000c8020000c0
:10001800c8020000c8020000c8020000c8020000b0
:10002800c8020000c8020000c8020000c8020000a0
:10003800c8020000c8020000c8020000c802000090
:020000040000fa
:100400002f0121000eff27000e01880000000000d0
:100410000c000700605c2000010020000f000700b6
:10042000000020000000e000020032000000020096
:10043000000000000a030200000000000040da0093
:100440000000fe00000020000000e000020032007a
:10045000000020009001880000000600a102880032
:10046000800078000000eb001a003700e2804000b6
:1004700054a0b4009101ba00e280400054a0b4003e
:100480009102ba00e280400054a0b4000002eb00e8
:10049000472bde00f507b200a6018800602ce100c2
:1004a00008003a000049eb000201e80002003900b0
:1004b0003420ec0002f0a0008301e900f9ff3e00c7
:1004c000040037006128e100010032000082eb00e7
:1004d000040007001101ba000200e000e3ff3a0047
:1004e0000000060004d0a300e20f49001c00390000
:1004f000810278003549ba000201e80002003900a3
:100500003420ec0002f0a0008301e9000f0032006b
:100510002549ba000201e800020039003420ec004d
:1005200002f0a0008301e900080032000400e000ae
:100530000600320015c9ba000201e80002003900c5
:100540003420ec0002f0a0008301e9008180e80083
:1005500054a0b4000300e000e2ff3a0000000600ef
:100560009102ba00055978008301e900f7ff3200d3
:10057000c82ade00055978008301e900f3ff320044
:100580000400e000f1ff320011d9ba00eeff37009d
:100590000040da000000fe00839f68000100e000d8
:1005a00002003d0060001000e08018000300e00041
:1005b00002003d0060011100e08119000500070004
:1005c0004f00e00002003b0060001000e0801800d7
:1005d000000006006022b800060220000000d000e3
:1005e0008180d2000482d2008582d2000000a00067
:1005f0000202520083825a000300310002024200cc
:1006000083824a000000a1000603e900f3ff3a00dc
:0406100000000600e0
:020000040000fa
:100614000600fa0010079800210798002001200026
:10062400303a8800213a8000f0f32f000080600007
:10063400203a8800213a800000fe2f0000806000ec
:10064400203a88003200200080072000a109200001
:100654003374200080497800814978008249780009
:10066400103a8000000178000200a000600420001d
:1006740071052000237420008049780081497800a6
:100684008249780000000000113a80000000270031
:100694008080600000002300808f5000faff3a0041
:1006a40000000000113a8000000220000080600079
:1006b400e00f5000fbff32000000eb00000f780059
:1006c400140107001e007800e00f50000e003a00ed
:1006d4000080800011808000228080006900070073
:1006e40030808000418080005280800051000700eb
:1006f4006080800071808000828080004d0007004f
:100704001e0fe800220037001e007800e10f5000a1
:100714000e003a000080800011808000228080005a
:1007240044000700308080004180800052808000b7
:100734005400070060808000718080008280800007
:100744003c0007001e0fe800110037001e0078006f
:10075400e20f50000e003a000080800011808000fb
:1007640022808000330007003080800041808000b8
:10077400528080002f00070060808000718080001c
:10078400828080003f0007000000eb00000f78002b
:10079400803e200061000700caff37000800fa000d
:1007a40010079800210798003207980010002000d5
:1007b400000f78006e4090000080fb009e007800df
:1007c4000008dd00000f78001e0090009e009000dd
:1007d400910078009e807000010878000080fa0083
:1007e400000006000800fa0010079800210798008e
:1007f4003207980010002000000f78006e4090002f
:100804000080fb009e0078000008dd00000f7800e7
:100814001e0090009e009000910078000101780075
:100824009e80ea0081006100010878000080fa00df
:10083400000006000800fa0010079800210798003d
:100844003207980010002000000f78006e409000de
:100854000080fb009e0078000008dd00000f780097
:100864002e009000ae009000910078000101780005
:100874009e80ea0081006100010878000080fa008f
:10088400000006000800fa001007980021079800ed
:100894003207980010002000000f78006e4090008e
:1008a4000080fb009e0078000008dd00000f780047
:1008b4002e009000ae009000910078009e807000a1
:1008c400010878000080fa00000006000800fa0021
:1008d40010079800210798003207980010002000a4
:1008e400000f78006e4090000080fb009e007800ae
:1008f4000008dd00000f78002e0090001000780042
:100904009e0060006e4090000080fb000008de0046
:10091400004078000080fa00000006000800fa0099
:1009240030079800be0090000019200000017800f4
:10093400110009008200d800100798000000eb00a5
:10094400000f780015003700011020003e009000d1
:1009540018000700000078008000780000032800d9
:100964002e000700100020003700070001003700a8
:1009740000000000004080004300de006140600091
:100984000080fb00200798002e009000e10f50002b
:10099400f7ff3a004b0007001e0fe8001e0090000e
:1009a4009e007800808f5000e7ff34000080fa003a
:1009b400000006000800fa0020079800310798009c
:1009c4003e009000cf80de000001be0000a02500a4
:1009d40021262000effe07000001be002e0090003b
:1009e400cf80de00801ab800820bb800860278003f
:1009f400050242000010b8000102420084007800a1
:100a0400823e200003002000e2fe0700008fbe00ab
:100a14001e00be000080fa00000006000400fa0078
:100a2400000f7800110798000000eb000008880010
:100a34001e009000100888001e007800200888001e
:100a44000080fa00000006000200fa00000f78009f
:100a54000068a9001e00780000407800674060002c
:100a640067406000674060000080fb006700600032
:100a74004c00dd0002428000f1ff2800810061008b
:100a840000807000004288009e007800688060004a
:100a94004300de0000407800614060000080fb00fd
:100aa400610060004300dd000241800071ff2f00ff
:100ab4008100610000807000004188000080fa001d
:100ac400000006000000fa002068a90005e1a90062
:100ad4000068a9000080fa00000006000200fa0085
:100ae400000f78001e007800000888000080fa00db
:100af400000006000000fa00000880000080fa00f0
:100b0400000006000000fa000068a9000080fa0056
:100b1400000006000000fa000000eb00707388007b
:100b2400707380007072880070728000f0718800a9
:100b3400f07180007071880070718000f07088001e
:100b4400f0708000707088004001200073ff07007f
:100b540000808000118080002280800021ff070037
:100b64003080800041808000528080001dff07009b
:100b740060808000718080008280800019ff0700ff
:080b84000080fa0000000600e9
:020000040000fa
:100b8c00001000001200000082000000200e220065
:100b9c000e030000200e22000e020000400e420048
:080bac000e040000000000002f
:020000040000fa
:0200000401f009
:04000c0078ff000079
:020000040000fa
:0200000401f009
:040010007dff000070
:00000001FF
