:020000040000fa
:080000000002040000000000f2
:020000040000fa
:10000800cc020000cc020000cc020000cc020000b0
:10001800cc020000cc020000cc020000cc020000a0
:10002800cc020000cc020000cc020000cc02000090
:10003800cc020000cc020000cc020000cc02000080
:020000040000fa
:100400002f0121000eff27000e01880000000000d0
:1004100000012000200288000c000700c05d2000c1
:10042000010020000f000700000020000000e00095
:100430000200320000000200000000000e03020073
:10044000000000000040da000000fe002000200054
:100450000000e0000200320010002000900188003f
:1004600000000600a1028800800078000000eb0078
:100470001a003700e280400054a0b4009101ba0095
:10048000e280400054a0b4009102ba00e280400033
:1004900054a0b4000002eb00472bde00f507b200c9
:1004a000a6018800602ce10008003a000049eb003a
:1004b0000201e800020039003420ec0002f0a00044
:1004c0008301e900f9ff3e00040037006128e100e4
:1004d000010032000082eb00040007001101ba00a5
:1004e0000200e000e3ff3a000000060004d0a30091
:1004f000e20f49001c003900810278003549ba003a
:100500000201e800020039003420ec0002f0a000f3
:100510008301e9000f0032002549ba000201e8001a
:10052000020039003420ec0002f0a0008301e90051
:10053000080032000400e0000600320015c9ba00cd
:100540000201e800020039003420ec0002f0a000b3
:100550008301e9008180e80054a0b4000300e000ba
:10056000e2ff3a00000006009102ba000559780047
:100570008301e900f7ff3200c82ade000559780040
:100580008301e900f3ff32000400e000f1ff3200d4
:1005900011d9ba00eeff37000040da000000fe007b
:1005a000839f68000100e00002003d006000100031
:1005b000e08018000300e00002003d00600111002f
:1005c000e0811900050007004f00e00002003b0039
:1005d00060001000e0801800000006006022b800f3
:1005e000060220000000d0008180d2000482d200e8
:1005f0008582d2000000a0000202520083825a00cd
:10060000030031000202420083824a000000a10080
:0c0610000603e900f3ff3a0000000600ba
:020000040000fa
:10061c000600fa001007980021079800240120001a
:10062c00343a8800243a80000460a1000470a100d0
:10063c00243a8800253a800004fe2f0004826200d0
:10064c00243a88003600200084072000a5092000e9
:10065c0037742000844b7800854b7800864b7800eb
:10066c00143a8000040378000600a0006404200003
:10067c007505200027742000844b7800854b78008a
:10068c00864b780000000000153a8000040027001b
:10069c008482620004002300848f5200faff3a0027
:1006ac0000000000153a8000040220000482620061
:1006bc00e00f5200fbff32000002eb00040f780049
:1006cc001d0107001e027800e00f52000e003a00d8
:1006dc00008080001180800022808000690007006b
:1006ec0030808000418080005280800051000700e3
:1006fc006080800071808000828080004d00070047
:10070c001e0fe800220037001e027800e10f520095
:10071c000e003a0000808000118080002280800052
:10072c0044000700308080004180800052808000af
:10073c0054000700608080007180800082808000ff
:10074c003c0007001e0fe800110037001e02780065
:10075c00e20f52000e003a000080800011808000f1
:10076c0022808000330007003080800041808000b0
:10077c00528080002f000700608080007180800014
:10078c00828080003f0007000002eb00040f78001d
:10079c00803e200062000700caff37000800fa0004
:1007ac0010079800210798003207980014002000c9
:1007bc00040f78006e4290000482fb009e027800c9
:1007cc00042add00040f78001e0290009e029000a7
:1007dc00950278009e827200050a78000080fa006b
:1007ec00000006000800fa00100798002107980086
:1007fc003207980014002000040f78006e4290001d
:10080c000482fb009e027800042add00040f7800ad
:10081c001e0290009e02900095027800050378005d
:10082c009e82ea0085026300050a78000080fa00c7
:10083c00000006000800fa00100798002107980035
:10084c003207980014002000040f78006e429000cc
:10085c000482fb009e027800042add00040f78005d
:10086c002e029000ae0290009502780005037800ed
:10087c009e82ea0085026300050a78000080fa0077
:10088c00000006000800fa001007980021079800e5
:10089c003207980014002000040f78006e4290007c
:1008ac000482fb009e027800042add00040f78000d
:1008bc002e029000ae029000950278009e8272008b
:1008cc00050a78000080fa00000006000800fa0013
:1008dc001007980021079800320798001400200098
:1008ec00040f78006e4290000482fb009e02780098
:1008fc00042add00040f78002e0290001402780008
:10090c009e0262006e4290000482fb00042ade000c
:10091c0004427800044078000080fa0000000600d1
:10092c000800fa0030079800be029000041920005d
:10093c00110009008402d800000278001407980006
:10094c000002eb00040f78001600370001102000a5
:10095c003e009000190007000002be00040278005f
:10096c0084007800000328003400070010002000e9
:10097c003d0007000100370000000000044080002b
:10098c004322de00614262000482fb0024079800cf
:10099c002e029000e10f5200f7ff3a0051000700c1
:1009ac001e0fe8001e0290009e027800848f5200f9
:1009bc00e6ff34000080fa00000006000800fa0090
:1009cc0020079800310798003e029000cfa2de006d
:1009dc000401be0000a0250021262000edfe07002a
:1009ec000002be000403be002e029000cfa2de0067
:1009fc008438b8008629b8008200780001004000d5
:100a0c0006037800040278000432b80005004000a8
:100a1c0080027800823e2000030020000400be000b
:100a2c00dcfe07000002be00048fbe001e02be00ea
:100a3c000400be000080fa00000006000400fa006a
:100a4c00000f7800110798000002eb0004088800e2
:100a5c001e029000140888001e02780024088800ea
:100a6c000080fa00000006000200fa00000f780077
:100a7c000068a9001e0278000442780067426200f8
:100a8c0067426200674262000482fb0067026200f8
:100a9c004c22dd0006428000f5ff28008502630031
:100aac0004827200044288009e0278006882620010
:100abc004322de0004427800614262000482fb00a3
:100acc00610262004322dd000641800075ff2f00a9
:100adc008502630004827200044188000080fa00e1
:100aec00000006000000fa002068a90005e1a9003a
:100afc000068a9000080fa00000006000200fa005d
:100b0c00000f78001e027800040888000080fa00ac
:100b1c00000006000000fa000408800004007800c1
:100b2c000080fa00000006000000fa000068a9002e
:100b3c000080fa00000006000000fa000002eb0042
:100b4c0074738800747380007472880074728000ef
:100b5c00f4718800f47180007471880074718000e5
:100b6c00f4708800f47080007470880040012000dc
:100b7c006bff0700008080001180800022808000c5
:100b8c0018ff070030808000418080005280800078
:100b9c0014ff0700608080007180800082808000dc
:0c0bac0010ff07000080fa0000000600a7
:020000040000fa
:100bb800001000001200000082000000200e220039
:100bc8000e030000200e22000e020000400e42001c
:080bd8000e0400000000000003
:020000040000fa
:0200000401f009
:04000c0078ff000079
:020000040000fa
:0200000401f009
:040010007dff000070
:00000001FF
