:020000040000fa
:080000000002040000000000f2
:020000040000fa
:100008009a0200009a0200009a0200009a02000078
:100018009a0200009a0200009a0200009a02000068
:100028009a0200009a0200009a0200009a02000058
:100038009a0200009a0200009a0200009a02000048
:020000040000fa
:020000040000fa
:100400000f8020000e8f20000e01880000000000e9
:10041000000020000000e000020032000001200087
:10042000200288000c000700c036200001002000d8
:1004300011000700000020000000e0000200320070
:1004400000000200000000009e0202000000000008
:100450000040da000000fe004440a9000000200037
:100460000000e0000300320000002000a00188002e
:100470004440a80000000600910188008000780038
:100480000000eb0015003700e280400032a0b4000d
:100490009101ba00e280400032a0b4009102ba009b
:1004a000e280400032a0b4000002eb00472bde00e7
:1004b000f507b200602ce10004003a000059eb009f
:1004c0008301e900fdff3e00040037006128e100e0
:1004d000010032000082eb00040007001101ba00a5
:1004e0000200e000e8ff3a00000006003159ba00bf
:1004f0008301e9000c0032002159ba008301e900b0
:10050000080032000400e00003003a00e2804000ee
:1005100032a0b400f5ff370011d9ba008301e90019
:10052000faff3a008100e800e180400032a0b40008
:0c053000000006000040da000000fe00a1
:020000040000fa
:10053c000000fa0094022000343a8800243a80002b
:10054c000460a1000470a100243a8800253a8000c0
:10055c0004fe2f0004826200243a8800160020005a
:10056c0084072000a509200037742000844b7800f4
:10057c00854b7800864b7800160020006404200020
:10058c007505200027742000844b7800854b78007b
:10059c00864b780000000000153a8000040027000c
:1005ac008482620004002100848f5200faff3a001a
:1005bc0000000000153a8000040220000482620052
:1005cc00e00f5200fbff320050c7a80051a7a80053
:1005dc00843a80000480a0000490a00004a0a00035
:1005ec00843a880051e7a80000000000853a80009a
:1005fc000400240004826200e00f5200fbff320072
:10060c0001000700ffff37000400fa0001e4a90015
:10061c005453200005002000048fbe0014208000dd
:10062c000400a1000410a1000420a10014208800e3
:10063c001e02780024208800240320005421880006
:10064c0024032000642188000002eb0004218800b0
:10065c0024208000442188002420800084218800ec
:10066c00242080004222de003421880014218000e6
:10067c0004a0a10004b0a1001421880021a4a900a9
:10068c0021e4a90021c4a90023c4a80023e4a800e4
:10069c000164a9008fc0a900940680000480a0000a
:1006ac000490a00004a0a100940688001e0278000b
:1006bc00942188009fc0a9002144a90001a4a8008e
:0c06cc0001e4a8000080fa000000060015
:020000040000fa
:0406d800000000001e
:020000040000fa
:0200000401f009
:04000c00f8ff0000f9
:020000040000fa
:0200000401f009
:040010007bff000072
:020000040000fa
:0200000401f009
:040014007fff00006a
:020000040000fa
:0200000401f009
:04001800ffff0000e6
:020000040000fa
:0200000401f009
:04001c00dfff000002
:00000001FF
