:020000040000fa
:080000000002040000000000f2
:020000040000fa
:10000800cc020000cc020000cc020000cc020000b0
:10001800cc020000cc020000cc020000cc020000a0
:10002800cc020000cc020000cc020000cc02000090
:10003800cc020000cc020000cc020000cc02000080
:10004800cc020000cc020000cc020000cc02000070
:10005800cc020000cc020000cc020000cc02000060
:1000680048210000cc020000cc020000cc020000b5
:10007800cc020000cc020000cc020000cc02000040
:10008800cc020000cc020000cc020000cc02000030
:100098009e1c0000cc020000cc020000cc02000034
:1000a800cc020000cc020000cc020000cc02000010
:1000b800cc020000cc020000cc020000cc02000000
:1000c800cc020000cc020000cc020000cc020000f0
:1000d800cc020000cc020000cc020000cc020000e0
:1000e800cc020000902c0000cc020000cc020000e2
:1000f800cc020000cc020000cc020000cc020000c0
:10010800cc020000cc020000cc020000cc020000af
:10011800cc020000cc020000cc020000cc0200009f
:10012800cc020000cc020000cc020000cc0200008f
:10013800cc020000cc020000cc020000cc0200007f
:10014800cc020000cc020000cc020000cc0200006f
:10015800cc020000cc020000cc020000cc0200005f
:10016800cc020000cc020000cc020000cc0200004f
:10017800cc020000cc020000cc020000cc0200003f
:10018800cc020000cc020000cc020000cc0200002f
:10019800cc020000cc020000cc020000cc0200001f
:1001a800cc020000cc020000cc020000cc0200000f
:1001b800cc020000cc020000cc020000cc020000ff
:1001c800cc020000cc020000cc020000cc020000ef
:1001d800cc020000cc020000cc020000cc020000df
:1001e800cc020000cc020000cc020000cc020000cf
:1001f800cc020000cc020000cc020000cc020000bf
:10020800cc020000cc020000cc020000cc020000ae
:10021800cc020000cc020000cc020000cc0200009e
:10022800cc020000cc020000cc020000cc0200008e
:10023800cc020000cc020000cc020000cc0200007e
:10024800cc020000cc020000cc020000cc0200006e
:10025800cc020000cc020000cc020000cc0200005e
:020000040000fa
:100400000f2121000eff27000e01880000000000d0
:1004100000012000200288000c000700e0dc220020
:10042000010020000f000700000020000000e00095
:10043000020032000000020000000000d20f0200a3
:10044000000000000040da000000fe002000200054
:100450000000e0000200320010002000900188003f
:1004600000000600a1028800800078000000eb0078
:100470001a003700e280400054a0b4009101ba0095
:10048000e280400054a0b4009102ba00e280400033
:1004900054a0b4000002eb00472bde00f507b200c9
:1004a000a6018800602ce10008003a000049eb003a
:1004b0000201e800020039003420ec0002f0a00044
:1004c0008301e900f9ff3e00040037006128e100e4
:1004d000010032000082eb00040007001101ba00a5
:1004e0000200e000e3ff3a000000060004d0a30091
:1004f000e20f49001c003900810278003549ba003a
:100500000201e800020039003420ec0002f0a000f3
:100510008301e9000f0032002549ba000201e8001a
:10052000020039003420ec0002f0a0008301e90051
:10053000080032000400e0000600320015c9ba00cd
:100540000201e800020039003420ec0002f0a000b3
:100550008301e9008180e80054a0b4000300e000ba
:10056000e2ff3a00000006009102ba000559780047
:100570008301e900f7ff3200c82ade000559780040
:100580008301e900f3ff32000400e000f1ff3200d4
:1005900011d9ba00eeff37000040da000000fe007b
:1005a0000400fa00000f7800110798000002eb0029
:1005b000340888001e029000640888001e0278003b
:1005c000840888001061a9000080fa00000006007d
:1005d0000200fa00000f780000e8a9001e0278006f
:1005e000044278006742620067426200674262002c
:1005f0000482fb00670262004c22dd00164280008c
:10060000f5ff28008502630004827200144288000e
:100610009e027800688262004322de000442780075
:10062000614262000482fb00610262004722dd0039
:1006300006418000f5f72f008502630004827200f6
:10064000044188000080fa00000006000000fa0063
:1006500020e8a90011e1a90000e8a9000080fa0043
:10066000000006000000fa00340880000400780052
:100670000080fa00000006000200fa00000f780077
:100680001e027800340888000080fa00000006008e
:100690000000fa0000e8a9000080fa00000006004f
:1006a0000000fa00040024000602ab00feff3a003e
:1006b0000642ab00fcff3a000662ab00faff3a00cc
:1006c0000622ab00f8ff3a000682ab00f6ff3a00c4
:1006d0004610800086026200e08f5200f2ff3a006e
:1006e0000080fa00000006000000fa000662a80080
:1006f0000662ab00feff3a0008c2a90000108000ad
:100700000080fa00000006000000fa000080fb00f4
:1007100010108800441080000408b20000c0eb00f4
:100720000b003a000400240046108000860262009c
:10073000e08f5200fcff3a00d9ff070000002800bc
:100740000802b600e00f500001003200e0cfb30015
:100750000080fa00000006000000fa0006a2a800cf
:100760000682a8000080fa00000006000000fa00df
:100770000622a8000080fa00000006000000fa002f
:100780000602a8000080fa00000006000000fa003f
:100790000642a8000080fa000000060003f0a20054
:1007a000889fbe008a9fbe008c1f78002a01070028
:1007b000310133006450e1004f0032006420e10059
:1007c0005200320003826c0007003b000905d00094
:1007d0000306d000820f54000c065d0002003900b1
:1007e00002003200890178000306780085825500f6
:1007f00004003d000003fd008103fd008502ea00c6
:100800008b854200840f720002003b0060001000e4
:10081000e08018006011b8000005eb007a28e100c4
:100820000a00390006007800c75ddd00f707b20056
:10083000878075002d003700828171000a017800e1
:10084000610560008180d1000080d3008502e9004d
:10085000f9ff3b00060440008784480002003b008b
:1008600060041400e0841c000988a3000700320023
:100870008a81710082817100610164008904d10064
:100880000884d3008b05e800170037000978a3001f
:1008900013003a000b00e000130034008b05e90060
:1008a0000804440089844c000a4474000978a300b9
:1008b0000d003a000b00e000070034008b05e90052
:1008c0000804440089844c0001003a000b00200019
:1008d0000978a300f7ff32000001eb0002003700a7
:1008e000828171000a017800a00007000cf0a700c7
:1008f00001f0a000e90037006420e10002003a00a6
:10090000838f6c00e90033000801be000200be00c6
:10091000e2003700889fbe008a9fbe008c1f7800cf
:10092000cd000700d400330003866c006450e10062
:100930002e0032006420e100330032006150e100fb
:100940002f0032006120e100310032008585550022
:10095000eb07b00009002000080420000500370064
:100960000804440089844c000a0031000603430057
:1009700087834b000001530081815b00f8ff330047
:100980000203be000800a0000804440089844c0053
:10099000f6ff3900c639dd00830173000100320023
:1009a000130020008904d1000884d3000998a30013
:1009b000050032000800a7000300a0008904d10050
:1009c0000884d3008b05e8008904d1000884d30093
:1009d0000001eb000281d2006400070001f0a100d9
:1009e0000cf0a70001f0a000ac0037006420e1008b
:1009f000ae0032000801be000200be00f7ff370063
:100a00006120e100a90032006000b800f3ff370068
:100a10000000200001f82700f0ff3700839f6800e6
:100a20000100e00002003d0060001000e0801800be
:100a30000300e00002003d0060011100e0811900a8
:100a4000d10007004f00e00002003b0060001000f2
:100a5000e08018000000060014002000da003700d3
:100a6000f4ff2f00d80037000001be00650007002a
:100a70000470a70003f0a1006509b1001600320060
:100a80000d0035006828e10006003500f0ff2f005a
:100a9000f1ff27000300e00013003b0001002800e5
:100aa0000000050000004000818048008502e90048
:100ab000fcff3a0008003700f88f420002003c00bb
:100ac0008000eb00000005008100d1000080d30011
:100ad0008502e800fcff3a000300e00002003b0052
:100ae00060001000e0801800000006000001be0059
:100af000440007000470a70003f0a10003f8a3005e
:100b000013003a006509b1001000320009003500f9
:100b10006928e100020035000100280000000500fe
:100b200000004000818048008502e900fcff3a0097
:100b300000000600f88f4200050035008100d1005a
:100b40000080d3008502e800fcff3a0000000600a8
:100b50008000eb00000005004f89de008201780074
:100b6000b40037006011b800c200370081002000d7
:100b7000618055000b003d000b00200061fe2f003e
:100b80000100e1001d0034008281710061016400f8
:100b90008904d1000884d3000000e800faff3a007d
:100ba000710020006100640003007000020060001a
:100bb0000900320061044400e0844c000988a5006b
:100bc000050032008b05e8006808e10002003a00e9
:100bd0008904d1000884d300f20f20000258e100fc
:100be00005003d00c75ddd00f907b2008980750092
:100bf00008007800000006000bf827008b00780042
:100c000000000500c70ade00f107b200f50fb200d0
:100c100008003200e1cf4200020032000170a00063
:100c200024000500810f7000010032000408050057
:100c300044000500810f700002003a001400050016
:100c40008502e9000000400081c04800fcff3b0035
:100c50000170a000240005000004be00e9ff0700a9
:100c60000003be000405be000200be00e5ff070051
:100c7000844f7500000006000200be006450e100d1
:100c8000050036006420e100020036000968a30078
:100c900001003a000800be000160a0004f06780085
:100ca0004f05be004f04be0000000600f0ff2f00fd
:100cb000f1ff2700f9ff3700889fbe008a9fbe0022
:100cc0008c1f7800e4ff0700ebff330003866c0005
:100cd0006450e100240032006420e100270032006b
:100ce0006150e100220032006120e1002100320069
:100cf0008b854200eb07b1000134b800003ab80020
:100d00000804420089844a00013ab8000030b80063
:100d10008880400009014a000400330000004000c0
:100d200081804800020149008b05e900c909dd0006
:100d3000830170000100320013002000c814de009f
:100d40004814dd004709de001200b200c808de00ca
:100d50000884700085ff070001f0a1000cf0a700d7
:100d600001f0a000cdff37006120e100cfff32008d
:100d70000801be000200be00f7ff37006150e1002d
:100d8000fcff3a00c9ff37006022b80006022000cd
:100d90000000d0008180d2000482d2008582d2007f
:100da0000000a0000202520083825a0003003100ba
:100db0000202420083824a000000a1000603e9000b
:100dc000f3ff3a0000000600889fbe008a9fbe0025
:100dd000841f7800a0ff07004f0078001100330047
:100de000f0ff2f00838f6c0006003b0004056500b8
:100df0000a00a7000800370009f0a6001000200034
:100e000008003700820f5400838f5c000300390014
:100e10001000200001003e000000200009f0a700a3
:100e20000000ea004f05be004f04be000000e000d5
:100e300000000600881f7800030478000300e0002b
:100e400007003d0060001000e080180060011900fc
:100e5000e081190002003b0001f02d000300370083
:100e60000400070008f0a70001f0a0004f0478007c
:100e700000000600889fbe008a9fbe0000827000ae
:100e80000402710004827100260032000004be00da
:100e90000200be006011b8006b092000950220001e
:100ea0000182cf000a0039000541b1000082cf0065
:100eb000070039000541b1000982cf000400390064
:100ec0000541b1000882cf00010039000541b100a1
:100ed00005425200120032000a003b00828171007c
:100ee000610164008100d1000080d3008984d300b7
:100ef0000884d3008b05e8000442e800f7ff3a00bd
:100f0000070037000804440089844c0000004800b2
:100f1000818048008b05e9000442e900f9ff3a00ae
:100f200012ff07004f05be004f04be000000060080
:020000040000fa
:100f30000800fa000002eb00040f780044092100c9
:100f4000144278008482fb00540921001442780086
:100f50000482fb004822dd0004827200140798001e
:100f60001e029000e00f520011003d001e02900092
:100f70006123b80004002000f5ff2f0006024200a4
:100f800087824a000400be00f3fe07000002be0094
:100f900002002000031224000400be005dfe0700d2
:100fa0000002be00b4838800c58388000c003700af
:100fb0001e029000050020000400be00e9fe0700ac
:100fc0000002be0002002000031224000400be0044
:100fd00050fe07000002be00b4838800c58388006d
:100fe00064092100144278008482fb007409210006
:100ff000144278000482fb004822dd000482720063
:10100000148488001584800044062000848f5200d8
:1010100002003600440620001484880014848000f6
:1010200004427800044078004ef0b70084092100a3
:10103000144278000482fb00648488006584800088
:1010400044062000848f520002003600440620002f
:101050006484880094092100144278000482fb0013
:1010600074848800748480004822dd0074848800c1
:10107000a4092100144278008482fb00748480005b
:10108000048242007484880075848000441f20001c
:10109000848f520003003600441f200074848800af
:1010a000060037007584800024032000848f5200de
:1010b00002003e002403200074848800b40921004b
:1010c000144278000440780087f0b700c40921007a
:1010d000144278000440780088f0b700d409210059
:1010e000144278000440780089f0b700e409210038
:1010f00014427800044078008af0b7009408210078
:10110000144278000483fb00840821001442780014
:101110008482fb0074082100144278000482fb00e2
:10112000060178008500780004007800af0707000a
:10113000e4042100144278000482fb0004007800db
:1011400049080700a4082100144278000482fb002b
:10115000040078002f0807006584800084848000e4
:10116000848f5200110032006484800084848800df
:10117000008f8000118f8000228f80007116070081
:1011800064848000e4024700850078000400780051
:101190007811070000027800040f7800008f8000ab
:1011a000118f8000228f80007a16070075848000de
:1011b00094848000848f5200120032007484800076
:1011c00094848800008f8000118f8000228f80001f
:1011d0005c160700748480006409b000e6024700d2
:1011e0008500780004007800621107000002780092
:1011f000040f7800008f8000118f8000228f800004
:10120000641607000080fa00000006000200fa00e1
:1012100044092100144278000440780054f0b700db
:1012200054092100144278008482fb0064092100e3
:10123000144278000482fb004822dd000482720020
:10124000cfa2de000400be0043fe07000002be0085
:1012500002002000031224000400be00adfd0700c0
:101260000002be00148388002583880074092100d1
:10127000144278008482fb00840921001442780023
:101280000482fb004822dd0004827200cfa2de004f
:101290000400be0030fe07000002be000200200075
:1012a000a34724000400be009afd07000002be0010
:1012b0003483880045838800940921001442780013
:1012c0008482fb00a4092100144278000482fb0000
:1012d0004822dd0004827200040f78001e027800ac
:1012e000e00f520011003d001e0278006123b8009b
:1012f00004002000f5ff2f000602420087824a000a
:101300000400be0014fe07000002be00020024001c
:10131000c36124000400be007efd07000002be0081
:10132000b4828800c58288000c0037001e02780055
:10133000050020000400be000afe07000002be00f7
:1013400002002400c36124000400be0071fd0700f8
:101350000002be00b4828800c5828800b409210062
:10136000144278008482fb00c409210014427800f2
:101370000482fb004822dd0004827200040f780022
:101380001e027800e00f520011003d001e0278009e
:101390006123b80004002000f5ff2f000602420080
:1013a00087824a000400be00ebfd07000002be0079
:1013b00002002400c36124000400be0055fd0700a4
:1013c0000002be00d4828800e58288000c0037004d
:1013d0001e027800050020000400be00e1fd0700a9
:1013e0000002be0002002400c36124000400be000d
:1013f00048fd07000002be00d4828800e582880014
:10140000d4092100144278008482fb00e409210001
:10141000144278000482fb004822dd00048272003e
:10142000040f78001e027800e00f520011003d000a
:101430001e0278006123b80004002000f5ff2f0091
:101440000602420087824a000400be00c2fd070077
:101450000002be0002002400c36124000400be009c
:101460002cfd07000002be00f4828800058388007e
:101470000c0037001e027800050020000400be00aa
:10148000b8fd07000002be0002002400c361240072
:101490000400be001ffd07000002be00f4828800a9
:1014a00005838800f4092100144278000440780084
:1014b00055f0b70014c0b300044078008bf0b700bb
:1014c0000080fa00000006000400fa00881f78007f
:1014d000048080001580800018c0b3006011b8003f
:1014e0000400be005efd070000027800e00f52001d
:1014f00001003d000044eb00e04f54000d003200bd
:101500000480800015808000020020000312240067
:101510000400be00e8fd07000002be000400be009b
:1015200051fd07000002be0004027800040f78009d
:101530000c0037000480800015808000020020002d
:10154000031224000400be00dbfd07000002be0001
:101550000400be0044fd07000002be000402780043
:10156000040f78001e0278000442780004407800de
:10157000d5f0b7001e0278004822de000442780051
:1015800004407800d6f0b700448080005580800089
:1015900018c0b3006011b8000400be0030fd0700a1
:1015a00000027800e00f520001003d000044eb0013
:1015b000e04f54000c0032004480800055808000d1
:1015c00002002000031224000400be00bafd070040
:1015d0000002be000400be0044fd07000002be0081
:1015e000040f78000c003700448080005580800094
:1015f00002002000031224000400be00aefd07001c
:101600000002be000400be0017fd07000002be007d
:1016100004027800040f78001e027800044278006b
:1016200004407800d7f0b7001e0278004822de00a0
:101630000442780004407800d8f0b700248080008d
:101640003580800018c0b3006011b8000400be00ef
:1016500003fd070000027800e00f520001003d008a
:101660000044eb00e04f54000c0032002480800066
:101670003580800002002000031224000400be0018
:101680008dfd07000002be000400be0017fd07002c
:101690000002be00040f78000c0037002480800098
:1016a0003580800002002000031224000400be00e8
:1016b00081fd07000002be000400be00eafc070036
:1016c0000002be0004027800040f78001e027800b9
:1016d0000442780004407800d9f0b7001e02780078
:1016e0004822de000442780004407800daf0b700b7
:1016f000648080007580800018c0b3006011b8005d
:101700000400be00d6fc070000027800e00f520083
:1017100001003d000044eb00e04f54000c0032009b
:101720006480800075808000020020000312240085
:101730000400be0060fd07000002be000400be0001
:10174000eafc07000002be00040f78000c0037001e
:101750006480800075808000020020000312240055
:101760000400be0054fd07000002be000400be00dd
:10177000bdfc07000002be0004027800040f7800e0
:101780001e0278000442780004407800dbf0b700c5
:101790001e0278004822de000442780004407800ef
:1017a000dcf0b700848080009580800018c0b30012
:1017b0006011b8000400be00a9fc07000002780018
:1017c000e00f520001003d000044eb00e04f5400e8
:1017d0000c00320084808000958080000200200090
:1017e000031224000400be0033fd07000002be0007
:1017f0000400be00bdfc07000002be00040f78001c
:101800000c0037008480800095808000020020005a
:10181000031224000400be0027fd07000002be00e2
:101820000400be0090fc07000002be000402780025
:10183000040f78001e02780004427800044078000b
:10184000ddf0b7001e0278004822de000442780076
:1018500004407800def0b7004481800055818000ac
:1018600002002000031224000400be0012fd070045
:101870000002be000400be009cfc07000002be0087
:10188000040f78001e0278000442780004407800bb
:10189000dff0b7001e0278004822de000442780024
:1018a00004407800e0f0b7008481800095818000da
:1018b00002002000031224000400be00fefc07000a
:1018c0000002be000400be0088fc07000002be004b
:1018d000040f78001e02780004427800044078006b
:1018e000e1f0b7001e0278004822de0004427800d2
:1018f00004407800e2f0b7006481800075818000c8
:1019000002002000031224000400be00eafc0700cd
:101910000002be000400be0074fc07000002be000e
:10192000040f78001e02780004427800044078001a
:10193000e3f0b7001e0278004822de00044278007f
:1019400004407800e4f0b700a4818000b5818000f5
:1019500002002000031224000400be00d6fc070091
:101960000002be000400be0060fc07000002be00d2
:10197000040f78001e0278000442780004407800ca
:10198000e5f0b7001e0278004822de00044278002d
:1019900004407800e6f0b700c4818000044278007b
:1019a00004407800e7f0b700c48180004822de00e0
:1019b0000442780004407800e8f0b700e481800039
:1019c0000442780004407800e9f0b700e481800028
:1019d0004822de000442780004407800eaf0b700b4
:1019e000d48180000442780004407800ebf0b70016
:1019f000d48180004822de00044278000440780050
:101a0000ecf0b700f48180000442780004407800d4
:101a1000edf0b700f48180004822de000442780037
:101a200004407800eef0b7000482800004427800a1
:101a300004407800eff0b700048280004822de0006
:101a40000442780004407800f0f0b700148280006f
:101a50000442780004407800f1f0b700148280005e
:101a60004822de000442780004407800f2f0b7001b
:101a7000248280000442780004407800f3f0b7002c
:101a8000248280004822de0004427800044078006e
:101a9000f4f0b700348280000442780004407800fb
:101aa000f5f0b700348280004822de00044278005e
:101ab00004407800f6f0b7004482800004427800c9
:101ac00004407800f7f0b700448280004822de002e
:101ad0000442780004407800f8f0b7005482800097
:101ae0000442780004407800f9f0b7005482800086
:101af0004822de000442780004407800faf0b70083
:101b0000648280000442780004407800fbf0b70053
:101b1000648280004822de0004427800044078009d
:101b2000fcf0b70084828000e00f520004003d000a
:101b300084828000940cb0001407980002003700e3
:101b400084828000140798001e02900004427800ee
:101b500004407800fdf0b700e4042100144278004e
:101b600004407800fef0b7006484800004427800ee
:101b700004407800fff0b7007484800004427800cd
:101b80000440780000f1b700748480004822de0031
:101b9000044278000440780001f1b7007408210085
:101ba000144278000440780002f1b7008408210054
:101bb000144278000440780003f1b7009408210033
:101bc000144278000440780004f1b700a408210012
:101bd000144278000440780005f1b7009482800038
:101be000e00f520004003a0044c6b30004407800fd
:101bf00006f1b700030037000042eb000440780014
:101c000006f1b700a4808000b580800018c0b30042
:101c10006011b8000400be0091fb070000027800cc
:101c2000e00f520001003d000044eb00e04f540083
:101c30000c003200a4808000b580800002002000eb
:101c4000031224000400be001bfc07000002be00bb
:101c50000400be00a5fb07000002be00040f7800d0
:101c60000c003700a4808000b580800002002000b6
:101c7000031224000400be000ffc07000002be0097
:101c80000400be0078fb07000002be0004027800da
:101c9000040f78001e0278000442780004407800a7
:101ca00007f1b7001e0278004822de0004427800e7
:101cb0000440780008f1b700e4808000f5808000df
:101cc00018c0b3006011b8000400be0064fb070038
:101cd00000027800e00f520001003d000044eb00dc
:101ce000e04f54000c003200e4808000f58080005a
:101cf00002002000031224000400be00eefb0700d7
:101d00000002be000400be0078fb07000002be0017
:101d1000040f78000c003700e4808000f58080001c
:101d200002002000031224000400be00e2fb0700b2
:101d30000002be000400be004bfb07000002be0014
:101d400004027800040f78001e0278000442780034
:101d50000440780009f1b7001e0278004822de0036
:101d600004427800044078000af1b700b483800090
:101d7000c583800018c0b3006011b8000400be0025
:101d800037fb070000027800e00f520001003d0021
:101d90000044eb00e04f54000c003200b48380009c
:101da000c583800002002000031224000400be004e
:101db000c1fb07000002be000400be004bfb070091
:101dc0000002be00040f78000c003700b4838000ce
:101dd000c583800002002000031224000400be001e
:101de000b5fb07000002be000400be001efb07009a
:101df0000002be0004027800040f78001e02780082
:101e000004427800044078000bf1b7001e0278000d
:101e10004822de0004427800044078000cf1b7004c
:101e2000f48380000584800018c0b3006011b800fe
:101e30000400be000afb070000027800e00f520019
:101e400001003d000044eb00e04f54000c00320064
:101e5000f483800005848000020020000312240027
:101e60000400be0094fb07000002be000400be0098
:101e70001efb07000002be00040f78000c003700b4
:101e8000f4838000058480000200200003122400f7
:101e90000400be0088fb07000002be000400be0074
:101ea000f1fa07000002be0004027800040f780077
:101eb0001e02780004427800044078000df1b7005b
:101ec0001e0278004822de000442780004407800b8
:101ed0000ef1b700b40821001442780004407800e5
:101ee0000ff1b700248180003581800018c0b30055
:101ef0006011b8000400be00d9fa070000027800a3
:101f0000e00f520001003d000044eb00e04f5400a0
:101f10000c00320024818000358180000200200006
:101f2000031224000400be0063fb07000002be0091
:101f30000400be00edfa07000002be00040f7800a6
:101f40000c003700248180003581800002002000d1
:101f5000031224000400be0057fb07000002be006d
:101f60000400be00c0fa07000002be0004027800b0
:101f7000040f78001e0278000442780004407800c4
:101f800010f1b7001e0278004822de0004427800fb
:101f90000440780011f1b7004f0478000080fa0087
:101fa000000006005200fa00889fbe0070279800cb
:101fb000012f980024012000343a8800243a800040
:101fc0000460a1000470a100243a8800253a800032
:101fd00004fe2f0004826200243a8800740120006d
:101fe000443a88003600200084072000a50920001c
:101ff00037742000844b7800854b7800864b78003e
:10200000143a8000040378000600a0006404200055
:102010007505200027742000844b7800854b7800dc
:10202000864b780000000000153a8000040027006d
:102030008482620004002300848f5200faff3a0079
:1020400000000000153a80000402200004826200b3
:10205000e00f5200fbff32000002eb004407980043
:1020600014c2b300244f98000002eb00040f780064
:102070000042eb00344f98000002eb006407980028
:102080000002eb00740798000002eb00040f9800b8
:102090006022b800140f9800250f98000002eb0092
:1020a000140798000002eb00340f98000002eb00c8
:1020b000440f98000002eb00340798000002eb0088
:1020c000540f98006022b800640f9800750f9800b4
:1020d0008611070011c0b30050c1b300ea0d07001c
:1020e000401f2000dd1007000041eb008040eb00a6
:1020f0000040eb00bd030700b08d8000c18d800063
:10210000d28d8000d70807000002780044079800ad
:1021100050002000d1100700808d8000918d80003c
:10212000a28d8000cf0807000002780044079800c5
:1021300050002000c9100700108e8000218e800002
:10214000328e8000c708070000027800440798001c
:1021500050002000c1100700e08d8000f18d80004c
:10216000028e8000bf080700000278004407980034
:1021700050002000b910070003c8b300408e800053
:10218000518e8000628e8000e20b07000002780012
:102190001427980050002000b010070003c8b300b7
:1021a000d08e8000e18e8000f28e8000d90b070077
:1021b000000278002427980050002000a710070094
:1021c00003c8b300a08e8000b18e8000c28e800054
:1021d000d00b070000027800342798005000200040
:1021e0009e10070003c8b300708e8000818e8000af
:1021f000928e8000c70b07000002780044279800e9
:102200000002eb00640798005000200093100700c4
:102210005a060700570a0700000278004407980092
:10222000f10207000041eb008040eb0040c6b30024
:102230006e030700401f20008810070081c4b30010
:102240000040eb007a120700000278004407980073
:10225000100020008110070061c0b30010c0b3005f
:102260008c060700000278000467980091c4b30050
:102270000040eb006e12070000027800440798004f
:102280006022b80054279800652798008000eb0072
:1022900020002000b20c07000002eb00040f7800c1
:1022a0001d00370003002100408e8000518e800009
:1022b000628e8000520c070050002000671007005b
:1022c000c3002100708e8000818e8000928e80007d
:1022d0004b0c070050002000601007004300210055
:1022e000a08e8000b18e8000c28e8000440c07005a
:1022f000500020005910070083002100d08e80007c
:10230000e18e8000f28e80003d0c0700500020001e
:10231000521007001e0fe800140320009e027800f0
:10232000848f5200dfff340004808000158080001d
:10233000141798002517980044808000558080006d
:10234000341798004517980024808000358080005d
:10235000541798006517980064808000758080008d
:1023600074179800051f98001e229000e10f52007c
:10237000040032000400200005f82b0004808800cf
:10238000158088002e229000e10f520004003200d8
:102390000400200005f82b00448088005580880048
:1023a0003e229000e10f52000400320004002000a1
:1023b00005f82b0024808800358088004e2290008c
:1023c000e10f5200040032000400200005f82b0049
:1023d00064808800758088006022b800448188008d
:1023e000558188006022b80084818800958188002a
:1023f0006022b80064818800758188006022b8007e
:10240000a4818800b58188000002eb00c4818800a7
:102410000002eb00e48188000002eb00d481880018
:102420000002eb00f48188006022b800a4808800dc
:10243000b58088000002eb00240798000002eb0042
:10244000040f78003b0037001e02780004024200af
:102450002404b0000402470014027800e10f520087
:1024600033003a001e0278004222dd002402b00050
:10247000040247001402be0018c0b300020020008e
:10248000031a24000400be0075f90700000278005a
:10249000e00f520001003c000044eb00e04f54000c
:1024a000230032001e0278004222dd002402b00028
:1024b000040247001402be0018c0b300020020004e
:1024c000032724000400be0063f90700000278001f
:1024d000e00f5200010035000044eb00e04f5400d3
:1024e000130032002e0290000402e8002407980036
:1024f0001e0278004222dd002402b00004024700e0
:102500001403be00a4808000b58080000401be00da
:102510000600be00a2f807000002be00a4808800ea
:10252000b58088003e0290000402e800340798005d
:102530001e0fe8001e027800e30f5200c2ff3400b5
:102540002e029000e00f52000e003400a8808000a0
:10255000b98080002e029000cfa2de000400be00f1
:102560007df907000002be000401be000800be00a5
:10257000e8f807000002be00a4808800b58088004b
:10258000040037000400200005f82b00a480880018
:10259000b5808800a4808000b5808000c480880059
:1025a000d5808800a4808000b5808000e480880009
:1025b000f5808800a4808000b580800004818800b8
:1025c000158188000000eb0001f8070000e8a90071
:1025d0000153270000032800f1f7070021c0b300d2
:1025e00010c0b300ab05070000027800141f98006c
:1025f000690a0700000278000482880010002000a9
:10260000960f070031c0b30010c0b300a10507004a
:1026100000027800341f98005f0a0700000278006b
:1026200014828800100020008c0f070041c0b30006
:1026300010c0b3009705070000027800241f98001f
:10264000550a07000002780024828800100020004c
:10265000820f070051c0b30010c0b3008d05070002
:1026600000027800441f98004b0a0700000278001f
:102670003482880010002000780f07008040eb00b3
:1026800010c0b3008305070000027800541f9800b3
:10269000410a0700000278004482880010002000f0
:1026a0006e0f070011c0b30010c0b300790507001a
:1026b00000027800641f9800370a070000027800c3
:1026c0005482880010002000640f07001e02900052
:1026d000f30f52006001340081c4b30000012100f7
:1026e0007d11070061c0b30010c0b3006905070089
:1026f000000278000467980091c4b30040022100f2
:10270000751107003e029000e00f5200880034006f
:102710001e229000e10f520006003a000300210043
:10272000408e8000518e8000628e8000340b070046
:10273000040037000400200005f82b000480880006
:10274000158088002e229000e10f520006003a000a
:1027500083002100d08e8000e18e8000f28e800008
:10276000270b0700040037000400200005f82b00a9
:1027700044808800558088003e229000e10f52007e
:1027800006003a0043002100a08e8000b18e800038
:10279000c28e80001a0b07000400370004002000de
:1027a00005f82b0024808800358088004e22900098
:1027b000e10f520006003a00c3002100708e800035
:1027c000818e8000928e80000d0b07000400370080
:1027d0000400200005f82b006480880075808800c4
:1027e0000480800015808000141798002517980039
:1027f0004480800055808000341798004517980069
:102800002480800035808000541798006517980058
:10281000648080007580800074179800051f980000
:102820006022b800a4808800b58088000002eb0018
:10283000240798000002eb00040f780038003700ee
:102840001e027800040242002404b0000402470083
:1028500014027800e10f520030003a001e027800a6
:102860004222dd002402b000040247001402be0030
:1028700018c0b30002002000031a24000400be00a8
:1028800077f8070000027800e00f520001003c00da
:102890000044eb00e04f5400200032001e0278009c
:1028a0004222dd002402b000040247001402be00f0
:1028b00018c0b30002002000032724000400be005b
:1028c00065f8070000027800e00f520001003500b3
:1028d0000044eb00e04f5400100032002e02900044
:1028e0000402e800240798001e0278004222dd005e
:1028f0002402b000040247001403be00a48080003c
:10290000b58080000401be000600be00a4f70700e9
:102910000002be00a4808800b58088001e0fe80079
:102920001e027800e30f5200c5ff3400020037009a
:102930000002eb00240798002e029000e00f5200e6
:102940000e003400a8808000b98080002e02900024
:10295000cfa2de000400be007ff807000002be0028
:102960000401be000800be00eaf707000002be0036
:10297000a4808800b580880004003700c4808000ef
:10298000d5808000a4808800b5808800b682800051
:10299000c7828000a4808000b58080000401be0052
:1029a0000600be00c4f807000002be000404be001a
:1029b000d6828000e7828000c4808000d5808000bd
:1029c0000401be000600be00bbf807000002be0006
:1029d0000401be000800be0071f707000002be003f
:1029e0000404be00f682800007838000048180001a
:1029f000158180000401be000600be00aef807008d
:102a00000002be000401be000800be0064f707001b
:102a10000002be00e4808800f5808800e480800029
:102a2000f58080000481880015818800a4808000e2
:102a3000b5808000c4808800d58088003e02900068
:102a4000e00f52007c00340044052100144278005d
:102a5000e14f520062003a00b6838000c7838000d5
:102a6000548380006583800018c0b3000401be0059
:102a70000600be00f8f7070000027800e00f5200e1
:102a8000010034000044eb00e04f54000600320027
:102a90000002eb00848288008482800004007800b9
:102aa000060207002d003700b6838000c783800030
:102ab00094838000a583800018c0b3000401be0089
:102ac0000600be00e6f7070000027800e00f5200a3
:102ad00001003c000044eb00e04f540004003200d1
:102ae00094838000a5838000b4838800c583880018
:102af000b6838000c7838000748380008583800054
:102b000018c0b3000401be000600be00d2f70700e3
:102b100000027800e00f5200010035000044eb0095
:102b2000e04f5400040032007483800085838000ed
:102b3000b4838800c5838800e4808000f58080002d
:102b4000b6838000c78380000401be000600be007b
:102b50008c0d07000002780084828800a480800029
:102b6000b580800018c0b300020020004323240079
:102b70000400be00baf7070000027800e00f520020
:102b800001003c000044eb00e04f54000d003a000f
:102b9000848080009580800018c0b300020020006f
:102ba000432324000400be00adf7070000027800b4
:102bb000e00f520001003c000044eb00e04f5400e5
:102bc000020032000002eb008482880084828000d0
:102bd0000402ea0004007800b80107001b00370077
:102be000b4838000c583800002002000030a240013
:102bf0000400be0030f807000002be000200200002
:102c0000633124000400be00e4f607000002be00a9
:102c10000400be0094f707000002be000402780022
:102c200084828800848280000402ea000400780024
:102c3000a2010700050037000002eb008482880033
:102c400084828000040078009c0107000002eb00f1
:102c500014079800030037001e0290000402e800e9
:102c6000140798005405210014427800e14f5200e7
:102c700027003a00848080009580800018c0b3004f
:102c800002002000031f24000400be0074f70700a8
:102c900000027800e00f520001003d000044eb000c
:102ca000e04f540007003200958280004406200067
:102cb000848f520003003a000002eb0094828800e7
:102cc00020003700848080009580800018c0b30009
:102cd00002002000831e24000400be005ef70700ef
:102ce00000027800e00f5200010034000044eb00c5
:102cf000e04f54001000320094828000e00f520038
:102d00000f003a0044062000948288000d0037002e
:102d10005405210014427800e24f520003003a00ab
:102d20000002eb0094828800060037004406200071
:102d30009482880003003700000000000100370083
:102d40000000000094828000044278000440780073
:102d50001b010700dcf9070042f6070000027800bb
:102d6000540f980039f60700011020005e0890000b
:102d70001c0e07000002be00640f9800750f98003b
:102d800018c0b30002002000832c24006e089000bd
:102d9000fe08900030f7070000027800e00f5200b4
:102da000010035000044eb00e04f54000c003200fd
:102db0006e099000fe09900000002000812c240084
:102dc00076f607000002be000400be0026f70700ea
:102dd0000002be0004027800040078009f0d070086
:102de0000060fe00f7fd37000400fa0001eca900c6
:102df00004fa200005002000048fbe00146080004b
:102e00000400a1000410a1000420a10014608800a7
:102e10009e027800a4002000110009008402d8005e
:102e20000002780024608800f400200054618800cb
:102e3000f4002000646188000002eb000461880057
:102e400024608000446188002460800084618800e0
:102e5000246080000402d1003461880023cca800e3
:102e600023eca8001461800004a0a10004b0a1001c
:102e7000146188000002eb00046288002460800076
:102e80004462880024608000846288000002eb00b5
:102e90007462880043cca90043eca900146280004e
:102ea00004a0a00004b0a000146288000002eb009f
:102eb00004638800246080004463880024608000ec
:102ec000846388000002eb00346388000002eb009a
:102ed0007463880063cca80063eca80014638000ce
:102ee00004a0a00004b0a000146388000002eb005e
:102ef00004648800246080004464880024608000aa
:102f0000846488000002eb00546488000002eb0037
:102f1000646488000002eb00346488002460800050
:102f20007464880083cca90083eca9001464800039
:102f300004a0a00004b0a000146488000002eb000c
:102f40000465880024608000446588002460800057
:102f5000846588000002eb00546588000002eb00e5
:102f60006465880024608000346588000002eb00fe
:102f700074658800a3cca900a3eca90014658000a7
:102f800004a0a00004b0a000146588000002eb00bb
:102f90000466880024608000446688002460800005
:102fa000846688000002eb00546688000002eb0093
:102fb000646688000002eb003466880024608000ac
:102fc00074668800c3cca900c3eca9001466800015
:102fd00004a0a00004b0a0001466880001aca80002
:102fe00001eca8000080fa00000006000600fa00cc
:102ff000204798003147980042479800256080009c
:1030000044062000110009008482d80000027800e4
:10301000040f7800ae42900044c6b30084cf520043
:103020000200360044c6b300244798002e429000a8
:10303000e04f520002003a0083cca900090037009b
:1030400083cca8002e4290000482fb00450620009d
:1030500004825200840278001e027800842ab8009c
:1030600074648800be42900044c6b30084cf52000e
:103070000200360044c6b300344798003e42900038
:10308000e04f520002003a00a3eca900090037000b
:10309000a3eca8003e4290000482fb0045062000fd
:1030a00004825200840278001e027800842ab8004c
:1030b00034658800ce42900044c6b30084cf5200ed
:1030c0000200360044c6b300444798004e429000c8
:1030d000e04f520002003a00c3cca90009003700bb
:1030e000c3cca8004e4290000482fb00450620009d
:1030f00004825200840278001e027800842ab800fc
:10310000746688000080fa00000006000600fa00dd
:10311000204798003147980042479800256080007a
:1031200044062000110009008482d80000027800c3
:10313000040f7800ae42900044c6b30084cf520022
:103140000200360044c6b300244798002e42900087
:103150008482fb001e027800842ab8003464880050
:10316000be42900044c6b30084cf52000200360035
:1031700044c6b300344798003e4290008482fb006e
:103180001e027800842ab80034668800ce4290007f
:1031900044c6b30084cf52000200360044c6b300d8
:1031a000444798004e4290008482fb001e02780043
:1031b000842ab800746588000080fa0000000600c8
:1031c0000400fa0020479800256080004406200093
:1031d000110009008482d80000027800040f7800f2
:1031e000ae42900044c6b30084cf520002003600c5
:1031f00044c6b300244798002e4290008482fb000e
:103200001e027800842ab800746388000080fa00e7
:10321000000006000400fa002047980025608000a6
:1032200044062000110009008482d80000027800c2
:10323000040f7800ae42900044c6b30084cf520021
:103240000200360044c6b300244798002e42900086
:103250008482fb001e027800842ab8003463880050
:103260000080fa00000006000400fa0020479800e1
:103270002560800044062000110009008482d800e7
:1032800000027800040f7800ae42900044c6b300fc
:1032900084cf52000200360044c6b3002447980091
:1032a0002e4290008482fb001e027800842ab8001f
:1032b000746288000080fa00000006000400fa0032
:1032c000889fbe001007980004052000040f7800b6
:1032d0001e0290009e0f5200030034001e02780070
:1032e00014079800060037009e02ea001e029000b4
:1032f000848f5200020034001e02ea001407980076
:1033000024608000050020000400be0015f60700c0
:103310000004be001e029000cfa2de000400be002a
:103320000df607000002be0002002000832c2400de
:103330000400be001af507000002be000401be0032
:103340000800be005cf607000002be00020020007c
:10335000833424000400be006ef507000002be00a6
:103360000400be00e1f507000002be000402780080
:10337000346188004f04be000080fa00000006009f
:103380000400fa0010079800256080004406200021
:10339000110009008482d80000027800040f780030
:1033a0009e029000c4032000848f5200020034006b
:1033b000c4032000140798009e02900044fc2f00d4
:1033c000848f520002003d0044fc2f001407980037
:1033d00044908000e00f5200050034001e0290006f
:1033e000e00f520002003d00500020001b0c0700bf
:1033f00044908000e00f520005003d001e02900046
:10340000e00f52000200340050002000130c0700af
:103410001e029000449088001e029000e00f5200af
:10342000070034009e0290001e027800842ab80033
:10343000346188000002eb007461880011003700dd
:103440001e029000e00f52000a003d000002eb0057
:10345000346188001e0290000402ea0014079800fc
:103460009e0290001e027800842ab80074618800d1
:10347000040037000002eb00346188000002eb001a
:10348000746188000080fa00000006000600fa005f
:103490002007980014002000040f7800ae0290006e
:1034a00044062000848f52000300340044062000ac
:1034b0002407980006003700ae029000c4f92f00e0
:1034c000848f520002003d00c4f92f0024079800a9
:1034d0002e029000e00f520007003a00f4000700af
:1034e000570d07000002eb00c48f88000002eb00bc
:1034f000d48f88007a0037002e029000e00f52002f
:1035000005003d000082eb00040f78002e029000c1
:103510000402ea0024079800ae029000440620004e
:10352000848f5200020034004406200024079800d3
:103530002e029000cfa2de000400be0086f5070038
:103540000002be00f2282c0053e723000400be0056
:10355000d9f507000002be000400be0042f50700d6
:103560000002be00240798002e029000e00f5200d7
:1035700002003c001400200024079800c48f800043
:10358000e00f52001c003a0014002000c48f880095
:103590002e029000cfa2de000400be006ef50700f0
:1035a0000002be00021020000400be00340c070020
:1035b0000002be000401be0000032000d00c070082
:1035c0001e007800c500070014002000d48f88007a
:1035d0002e029000cfa2de00e48f8800f58f8800d5
:1035e0002e0290007e021200cfa2de00049088001e
:1035f00015908800100037002e0290006123b9005a
:103600002490800035908000840f5300858f5b00ec
:10361000090032002e029000cfa2de00e48f880065
:10362000f58f88002e0290007e021200cfa2de00ed
:103630000490880015908800ee0c070000027800c6
:10364000140798001e029000e10f520024003a0077
:10365000d48f8000e10f520011003a0004908000e6
:10366000159080000400be003bf507000002be007c
:10367000021020000400be00010c07000002be0082
:103680000401be00000320009d0c07001e0078000e
:10369000870007000002eb00d48f8800100037007d
:1036a000e48f8000f58f80000400be002af507003b
:1036b0000002be00021020000400be00f00b070054
:1036c0000002be000401be00000320008c0c0700b5
:1036d0001e0078008100070014002000d48f8800ad
:1036e0002e029000cfa2de00249088003590880042
:1036f000d48f8000040078000080fa0000000600eb
:103700000c00fa00881f7800500798000002eb00b8
:10371000040f78005e029000cfa2de000400be001d
:103720000df507000002be0005f0a2001407980086
:103730002507980018c0b30002002000832c240045
:103740001e009000ae009000c5f407000002780053
:10375000e00f520001003c000044eb00e04f540039
:103760000500320004002000852c24001407980076
:10377000250798000e00370018c0b3000200200093
:10378000832c2c001e009000ae009000b2f40700c5
:1037900000027800e00f5200010035000044eb0009
:1037a000e04f540002003200c4f92f005407980083
:1037b00018c0b300d2cc2c00c3e423001e0090003c
:1037c000ae009000a6f4070000027800e00f52005f
:1037d00001003c000044eb00e04f540003003200c5
:1037e00014002000040f78001300370018c0b30045
:1037f000d2cc2c00c3e42b001e009000ae00900041
:1038000095f4070000027800e00f52000100350037
:103810000044eb00e04f5400070032000082eb0050
:10382000040f78001e029000ae02900005f0a20086
:103830001407980025079800e27a24005315240005
:103840001e009000ae00900032f407000002be009f
:1038500014079800250798001e027800e00f520018
:1038600002003a00120007000d0037001e00780029
:103870001a000700021020001e009000ae00900009
:103880007f0b07000002be00340798004507980030
:103890003e019000ce01900000032800180c0700a4
:1038a000040078004f0478000080fa000000060051
:1038b0000000fa00608f8000718f8000828f80008e
:1038c000a00c0700908f8000a18f8000b28f800035
:1038d0009c0c07000080fa00000006000200fa00bd
:1038e000000f78001e027800e00f5200090034003b
:1038f000608f8000718f8000828f8000910c0700a4
:10390000908f8000a18f8000b28f8000a10c0700f3
:1039100008003700908f8000a18f8000b28f800058
:10392000880c0700608f8000718f8000828f80007c
:10393000980c07000080fa00000006003600f8002e
:10394000809fbe00829fbe00849fbe00869fbe00f7
:103950003200f800100020009001880000000000f4
:103960000000fa000388a9002388a9001fe1a9002c
:10397000cfff07000080fa003200f9004f03be00bd
:103980004f02be004f01be004f00be003600f900de
:10399000004006000000fa000602a8000080fa00bd
:1039a000000006000200fa000002eb00040f78009d
:1039b00007003700441f20009e027800848f5200c9
:1039c000020036000082eb001b0037001e0fe800eb
:1039d0003410800061026200e00f5200f5ff3a00ef
:1039e0003410800064026200e00f5200f1ff3a00e0
:1039f0003410800068026200e00f5200edff3a00d0
:103a00003410800062026200e00f5200e9ff3a00c9
:103a10003410800070026200e00f5200e5ff3a00af
:103a2000451080000400240004826200e00f520070
:103a3000e0ff3a0014002000040078000080fa0043
:103a4000000006000000fa0006a2a8000682a800f6
:103a50000080fa00000006000000fa0006a2a9009b
:103a60000682a8000080fa00000006000400fa00a8
:103a7000204798000002eb00040f78002e429000cf
:103a80000482fb0014108800451080000408200008
:103a900004826200e00f52000a00320000c2eb0014
:103aa00017003700441f20009e027800848f5200c8
:103ab0000200360000c2eb00110037001e0fe800c4
:103ac00001003700000000004510800004002400c1
:103ad00004826200e00f5200f2ff3a00b1ff0700db
:103ae000451080000400280004826200e00f5200ac
:103af00002003200e4cfb300010037000042eb00c7
:103b0000044078000080fa00000006000000fa007f
:103b10000642a8000080fa00000006000000fa003b
:103b20000622a8000080fa00000006000200fa0049
:103b30000002eb00040f78000662a80001003700c5
:103b40001e0fe8003410800068026200e00f52008f
:103b500004003200341f20009e027800848f52003f
:103b6000f7ff360008c2a900041080000442780064
:103b7000044078000080fa00000006000200fa000d
:103b8000312ea900314ea900308f8000418f800076
:103b9000528f8000eb0b07000002eb00341088000e
:103ba0000762a9000742a9000722a9000702a8008e
:103bb00006a2a9000682a900b418200024108800db
:103bc0002228a9002208a9000228a9000208a900a9
:103bd00004108000044f780008c2a90007e2a80082
:103be000308f8000418f8000528f8000e90b0700ea
:103bf00014c0b300044078000080fa000000060002
:103c00000400fa0020479800314798000602a900f6
:103c10000002eb00641088002e4290000482fb003a
:103c20005410880006c2a80006e2a9000702a900f5
:103c30000722a9000742a9000762a9000782a9007c
:103c400007a2a90004108000044f780008c2a90050
:103c50002208a9000208a9003e42900067426200c3
:103c60000482fb00670262004642800085ff2f004d
:103c70008502630004827200444288002208a80082
:103c800007e2a80014c0b300044078000080fa00e6
:103c9000000006000800fa0060479800714798008d
:103ca000308f8000418f8000528f8000b90b070059
:103cb0007e429000e74f5200020036000082eb0087
:103cc000430037006e4290000482fb004322dd0077
:103cd000844278007e42900004c27200044f780053
:103ce0002cff07002fff070004ceb30044479800c5
:103cf0004e4090005dff07002aff0700451080003e
:103d00000400280004826200e00f52000400320028
:103d10007eff070023ff0700e4ff2f002c00370081
:103d20001e40780051ff07001eff0700451080006d
:103d30000400280004826200e00f520004003200f8
:103d400072ff070017ff0700d4ff2f002000370085
:103d50000002eb00140798000b0037006f0007000b
:103d600000027800144798001e4278006f4f6200ee
:103d70001e4290006f426200144798001e0290009d
:103d80000402e800140798001e4290009e4278004a
:103d900084cf5200030032001e029000e20f520056
:103da000eeff34001e4290009e42780084cf520005
:103db000020032000082eb00050037001e42900036
:103dc00067426200144798001e4290000402fb0004
:103dd000040078000080fa00000006000000fa00ed
:103de000308f8000418f8000528f8000550b07007c
:103df000a000200099090700308f8000418f8000cb
:103e0000528f8000630b07000080fa00000006005c
:103e10000400fa000042eb00044f78000042eb007f
:103e20001447980055f207001df2070004ceb300b6
:103e3000244798002e4290000482fb000400780082
:103e400031f2070016f20700451080000400280038
:103e500004826200e00f5200040032004bf20700bf
:103e60000ff207000082eb0029003700a0002000bd
:103e700025f207000af20700451080000400280020
:103e800004826200e00f5200040032003ff207009b
:103e900003f207000082eb001d00370040062000ff
:103ea0006e09070035f20700fdf1070014ceb300dc
:103eb000244798002e4290000482fb000400780002
:103ec00011f20700f6f107004510800004002800f9
:103ed00004826200e00f5200040032002bf207005f
:103ee000eff107000082eb0009003700fef1070048
:103ef000000278001447980017f20700e8f1070065
:103f000022f20700e6f107001e4290000482fb0047
:103f1000040078000080fa00000006000200fa00a9
:103f20000042eb00044f78000042eb001447980079
:103f300098fe07009bfe070014ceb300044f7800e4
:103f40001e407800c9fe070096fe0700451080005d
:103f50000400280004826200e00f520004003200d6
:103f6000eafe07008ffe07000082eb000900370021
:103f7000eefe07000042780014479800b1fe0700eb
:103f800088fe0700e1fe070086fe07001e42900043
:103f90000482fb00040078000080fa0000000600a4
:103fa0000600fa00204798003147980042479800e1
:103fb00078fe07007bfe07002e4290000482fb0083
:103fc00004024200044f78001e407800a7fe07005c
:103fd00074fe07004510800004002800048262007f
:103fe000e00f520004003200c8fe07006dfe07001b
:103ff0000082eb001a0037003e4090009bfe070055
:1040000068fe07004510800004002800048262005a
:10401000e00f520004003200bcfe070061fe070002
:104020000082eb000e0037004e4090008ffe07002c
:104030005cfe070045108000040028000482620036
:10404000e00f520004003200b0fe070055fe0700ea
:104050000082eb0002003700acfe070014002000d5
:10406000040078000080fa00000006000400fa0056
:1040700020479800314798000042eb00044f780039
:1040800044fe070047fe07002e4290000482fb001a
:1040900004024200144798001e40900073fe07007f
:1040a00040fe0700451080000400280004826200e2
:1040b000e00f52000400320094fe070039fe0700b2
:1040c0000082eb00280037003e40900067fe0700aa
:1040d00034fe0700451080000400280004826200be
:1040e000e00f52000400320088fe07002dfe07009a
:1040f0000082eb001c00370088fe070029fe070045
:104100002e4290000482fb00040242000442780028
:104110000404a000144798001e40900053fe0700be
:1041200020fe070045108000040028000482620081
:10413000e00f52000400320074fe070019fe070071
:104140000082eb000800370078fe0700004278008c
:10415000044f780013fe07006cfe070011fe0700f5
:104160009e4278000582fb00040078000080fa007f
:10417000000006000400fa0020479800314798002c
:104180000042eb00044f78007cf1070044f1070087
:104190002e4290000482fb00040242001447980063
:1041a0001e4290000482fb000400780056f10700d4
:1041b0003bf10700451080000400280004826200e3
:1041c000e00f52000400320070f1070034f10700e4
:1041d0000042eb002b0037003e4290000482fb00bf
:1041e0000400780048f107002df107004510800019
:1041f0000400280004826200e00f52000400320034
:1042000062f1070026f107000042eb001d003700b5
:1042100056f1070022f107002e4290000482fb00b5
:1042200004024200044278000404a00014479800ed
:104230001e4290000482fb000400780032f1070067
:1042400017f1070045108000040028000482620076
:10425000e00f5200040032004cf1070010f107009b
:104260000042eb00070037001ff107000002780052
:10427000044f78000af1070044f1070008f1070035
:104280001e427800044078000080fa00000006001a
:10429000801f7800849fbe00869fbe003200f80019
:1042a0001000200090018800000000000600fa00c5
:1042b000451080000402200004826200e00f5200da
:1042c00027003a000042eb00044078005cf1b700a0
:1042d0000042eb00044078009df1b70044108000dc
:1042e00064026200e00f520003003a0004108000f4
:1042f000444798004e00370004108000444798005f
:10430000d4192100144278000483fb00d515210044
:1043100085024300954278008582fb0015108800d5
:104320000442e800044078009df1b7000002eb0071
:10433000040f7800050037001e0fe8004406200037
:104340009e027800848f52003600320044108000b4
:1043500061026200e00f5200f7ff3a0034003700bc
:104360004410800064026200e00f52000c003a002a
:10437000c4152100144278008483fb0005108000de
:1043800085427800c611210006834300054b780062
:104390000442e800044078005cf1b70024003700d4
:1043a0000410800054479800451080000400280045
:1043b00004826200e00f52001d003a00d41921006f
:1043c000144278000483fb00d515210085024300c8
:1043d000954278008582fb00151088000442e800b1
:1043e000044078009df1b7000002eb00140798002c
:1043f000070037001e0290000402e800140798002e
:104400009e02900044062000848f52000700320074
:104410004410800061026200e00f5200f5ff3a0094
:10442000030037000000000001003700000000001a
:10443000351080000400210004826200e00f520069
:1044400001003a000782a8000208a9000080fa00d3
:104450003200f9004f03be004f02be004f0078004b
:10446000004006000c00fa00300798004107980051
:10447000520798000513800004002800048262009f
:10448000e00f520003003a008040eb0020c0b30070
:10449000840607003e009000ce0090005e01900070
:1044a000940907003e009000ce0090005e0190004d
:1044b000b80907000002eb00040f7800190037006c
:1044c00064024700840178003e009000ce00900016
:1044d0005e01900049000700004278000482fb0062
:1044e000140798001e029000e00f520002003c00ea
:1044f0000002eb003e003700ae029000f40f2000f7
:104500000482620024079800ae029000540e20003e
:10451000848f5200020032000082eb00340037002a
:104520001e0fe8001e027800e90f5200e4ff34007d
:104530003e009000ce0090005e01900081090700cf
:1045400080d02200b2060700004278000482fb00ff
:10455000140798003e009000ce0090005e0190008d
:104560008c0907001e029000e00f520002003c0080
:104570000002eb001e0037003e009000ce009000cd
:104580005e0190006f090700640247008400780014
:1045900000d02a00b6060700004278000482fb0023
:1045a000140798003e009000ce0090005e0190003d
:1045b000780907001e029000e00f520002003c0044
:1045c0000002eb000a003700ae029000f40f20005a
:1045d00004826200240798002e029000e80f520027
:1045e00002003200e4ff2f00010037001400200019
:1045f000040078000080fa00000006000a00fa00bb
:104600001007980021079800320798004307980088
:104610001e009000ae0090003e0190004909070086
:10462000ce009000000028009106070000427800ac
:10463000044f78001e009000ae0090003e019000f4
:10464000540907001e427800e04f520002003a0071
:104650000042eb000100370014c0b30004407800b2
:104660000080fa00000006000c00fa002007980005
:104670003107980042079800530798002e009000d9
:10468000be0090004e0190002e0907000e82e80047
:104690008400780000202b00750607000042780097
:1046a000044f78002e009000be0090004e01900054
:1046b000380907001e427800e04f520002003a001d
:1046c0000042eb002e0037001e02900084027800aa
:1046d000f40f2000848262005e029000050a7800d8
:1046e0002e009000be0090004e01900015090700ba
:1046f0000e82e8008400780000302b005c06070082
:1047000000427800044f78002e009000be00900018
:104710004e0190001f0907001e427800e04f520032
:1047200002003a000042eb00150037005e029000e4
:1047300014027800840278001e039000f40f200019
:10474000040263004822dd000482420084027800f3
:104750005e029000050a78005e02900094027800e4
:10476000f4ff2700848f5200040032005e029000a4
:10477000940278005e029000050a780014c0b3002d
:10478000044078000080fa00000006000c00fa00e7
:1047900020079800310798004207980053079800b7
:1047a0002e009000be0090004e019000e50807002a
:1047b0000e82e8008400780000402b002c060700e1
:1047c00000427800044f78002e009000be00900058
:1047d0004e019000ef0807001e427800e04f5200a3
:1047e00002003a000042eb002e0037001e0290004b
:1047f00084027800f40f2000848262005e02900040
:10480000050a78002e009000be0090004e01900036
:10481000cc0807000e82e8008400780000502b00ce
:104820001306070000427800044f78002e00900025
:10483000be0090004e019000d60807001e4278008e
:10484000e04f520002003a000042eb001500370032
:104850005e02900014027800840278001e0390002b
:10486000f40f2000040263004822dd0004824200ad
:10487000840278005e029000050a78005e029000d3
:1048800094027800f4ff2700848f52000400320065
:104890005e029000940278005e029000050a7800a3
:1048a00014c0b300044078000080fa000000060045
:1048b0000c00fa0020079800310798004207980082
:1048c000530798002e009000be0090004e0190000b
:1048d0009c0807000e82e8008400780000602b002e
:1048e000e305070000427800044f78002e00900096
:1048f000be0090004e019000a60807001e427800fe
:10490000e04f520002003a000042eb00290037005d
:104910001e02900084027800f40f2000848262005e
:104920005e029000050a78002e009000be00900004
:104930004e019000830807000e82e8008400780092
:1049400000702b00ca05070000427800044f780071
:104950002e009000be0090004e0190008d080700d0
:104960001e427800e04f520002003a000042eb0085
:10497000100037005e029000140278008402780074
:104980001e039000f40f2000040263004822dd00a3
:1049900004824200840278005e029000050a7800da
:1049a0005e029000940278005e029000050a780092
:1049b00014c0b300044078000080fa000000060034
:1049c0001800fa00000f9800110f9800220f9800ad
:1049d000330f98006202470006000900001aeb003e
:1049e00004202f00140798000e0890009e089000e5
:1049f0002e099000530807000e82e8007100200085
:104a000004007800b405070000427800044f7800e5
:104a10000e0890009e0890002e0990005d08070087
:104a20001e427800e04f520002003a000042eb00c4
:104a300026003700ae0290003e0290004822dd00c2
:104a400004824200840278003e0a9000050a780041
:104a50003e0a9000940278003e0a9000050a780011
:104a60003e0a90000482e8004e039000de029000af
:104a7000c82add0085024300050a78003e0a90003e
:104a80000482e800be0a90008582e8009502780062
:104a9000050a78003e0a9000640242006e0390000e
:104aa000fe029000c82add0085024300050a780056
:104ab0003e0a900064024200be0a9000e482420076
:104ac00095027800050a780014c0b300044078000d
:104ad0000080fa00000006000c00fa0010079800a1
:104ae0002107980032079800034f98005407980058
:104af0001e009000ae0090003e01900011080700db
:104b00008e4a900004c8b30004c272000482fb0005
:104b10004822dd00de009000040078005405070004
:104b200000427800044f78001e009000ae00900014
:104b30003e019000170807001e427800e04f520027
:104b400002003a000042eb00070037005e029000ce
:104b500094027800f40f2000848262005e029000cc
:104b6000050a780014c0b300044078000080fa0001
:104b7000000006000800fa000042eb00144798000d
:104b80000002eb0014079800430037001e0290005b
:104b9000044278008440780010c0b3003dfc070058
:104ba00000027800644798000042eb00044f780050
:104bb0000002eb00240798000800370011c8b3007a
:104bc00030c1b30029fd070000027800044f7800cf
:104bd0002e0290000402e8002407980014c2b300db
:104be0001e426a000482fb000402ea004f22de003b
:104bf0000442780015c0b3002e039000e40f530068
:104c0000010034008042eb0005426200e04f520098
:104c1000eaff3a0014c2b3009e42780084cf5200eb
:104c200013003a0042c1b30031c8b30030c1b30031
:104c3000dbfc0700f2c0b30041c8b30030c1b300d1
:104c4000d7fc07000041eb0091c8b30030c1b300ae
:104c5000d3fc070012c8b300a1c8b30030c1b30031
:104c6000cffc07001e4290000442e8001447980061
:104c700031c8b30030c1b300fcfc0700000278006b
:104c8000144798000002eb00240798001e029000d1
:104c90000402e800140798001e029000e50f52007d
:104ca000baff34001e429000044078000080fa00f1
:104cb000000006000600fa000002eb00140798004e
:104cc0000002eb00240798000002eb00040f7800bc
:104cd000aaee070060c2b3008bee07000002eb00f3
:104ce000040f7800080037001e0fe800843e200003
:104cf0009e027800848f5200030034000642a80010
:104d00000082eb0089003700451080000400280075
:104d100004826200e00f5200f3ff3a0050c8b30073
:104d200079ee07000002eb00040f7800080037005e
:104d30001e0fe800843e20009e027800848f5200ff
:104d40000300340091ee07000082eb00770037008b
:104d5000451080000400280004826200e00f520029
:104d6000f3ff3a0081ee070070c2b30066ee070061
:104d70000002eb00040f7800080037001e0fe80067
:104d8000843e20009e027800848f5200030034008d
:104d90007eee07000082eb006400370045108000c3
:104da0000400280004826200e00f5200f3ff3a0082
:104db0004dee0700004278000482fb0024079800b3
:104dc00065ee070071ee07002e0290004822dd001c
:104dd0001407980069ee070060c2b3004aee0700ae
:104de0000002eb00040f7800080037001e0fe800f7
:104df000843e20009e027800848f5200030034001d
:104e000062ee07000082eb0048003700451080008a
:104e10000400280004826200e00f5200f3ff3a0011
:104e200056ee070060c2b30037ee07000002eb0049
:104e3000040f7800080037001e0fe800843e2000b1
:104e40009e027800848f5200030034004fee07006a
:104e50000082eb0035003700451080000400280078
:104e600004826200e00f5200f3ff3a0060c8b30012
:104e700025ee07000002eb00040f78000800370061
:104e80001e0fe800843e20009e027800848f5200ae
:104e9000030034003dee07000082eb0023003700e2
:104ea000451080000400280004826200e00f5200d8
:104eb000f3ff3a002dee070070c2b30012ee0700b8
:104ec0000002eb00040f7800080037001e0fe80016
:104ed000843e20009e027800848f5200030034003c
:104ee0002aee07000082eb0010003700451080001a
:104ef0000400280004826200e00f5200f3ff3a0031
:104f0000f9ed0700004278000482fb0024079800b6
:104f100011ee07001dee07009e0290002e02900089
:104f200004824200140798001e02900004007800da
:104f30000080fa00000006000400fa000002eb0006
:104f4000040f78000002eb001407980071c8b3004a
:104f500030c1b30045fc0700000278001407980038
:104f60001e0290004822dd00040f780081c8b300c3
:104f700030c1b3003dfc0700000278001407980020
:104f80001e0290001e0f42001e02780004007800ee
:104f90000080fa00000006000a00fa000042eb0060
:104fa000244798000002eb0024079800080037000f
:104fb00011c8b30030c1b3002cfc07000002780018
:104fc000244798002e0290000402e800240798006d
:104fd000ae42900014c2b30004c26a000482fb0017
:104fe0000402ea004f22de000442780015c0b3003c
:104ff0002e039000e40f5300010034008042eb00c8
:1050000005426200e04f5200e9ff3a00ae429000d4
:1050100014c2b30084cf5200020032000082eb00c1
:105020003900370001c8b30030c1b3000ffc0700de
:1050300000027800044f78001e4278000434a0007b
:105040000441780001c8b30030c1b300d4fb0700ad
:105050000042eb00044f78000042eb001447980038
:105060001100370010002000fc04070001c8b30045
:1050700030c1b300fdfb070000027800044f780048
:1050800004c2b3001e4f62001e4290000442e800ba
:10509000144798001e429000ea4f5200020034006c
:1050a000e4ff2f001800370004c2b3009e427800ce
:1050b00084cf5200ebff3a0071c8b30030c1b30097
:1050c000eafb07000002780004427800144f9800c1
:1050d00081c8b30030c1b300e4fb070000027800d0
:1050e00004427800044f98001e4a90000402fb001e
:1050f000c822dd000e4a90000402fb000482420038
:10510000340798003e029000040078000080fa0006
:10511000000006001000fa004007980051079800b0
:1051200062079800634f98004e009000de009000e8
:105130006e0190006f0607004e009000de009000a8
:105140006e019000930607000513800004002800fc
:1051500004826200e00f520003003a008040eb003e
:1051600020c0b3004f0307000082eb002407980023
:105170000082eb00340798004e009000de009000a3
:105180006e0190006f0607006402470021002000b6
:1051900004007800d00307000042780024479800fc
:1051a0004e009000de0090006e019000790607002e
:1051b0002e429000e04f520002003a000002eb0045
:1051c0008c0037000002eb00040f7800010037006c
:1051d0001e0fe800743e20009e027800848f52006b
:1051e000fbff36000002eb00040f78001e003700c2
:1051f00004802500240798004e009000de009000f7
:105200006e0190004f060700640247001100200065
:1052100004007800b003070000427800244798009b
:105220004e009000de0090006e01900059060700cd
:105230002e429000e04f520002003a000002eb00c4
:105240006c003700ae029000f40f200084826200f0
:10525000340c2000848f5200020032000082eb00e8
:10526000640037001e0fe8001e027800e90f5200ac
:10527000dfff36000002eb00040f78001e0037004d
:1052800004002400240798004e009000de009000e7
:105290006e0190002b0607006402470011002000f9
:1052a000040078008c03070000427800244798002f
:1052b0004e009000de0090006e0190003506070061
:1052c0002e429000e04f520002003a000002eb0034
:1052d00048003700ae029000f40f20008482620084
:1052e00004082000848f5200020032000082eb008c
:1052f000400037001e0fe8001e027800e90f520040
:10530000dfff36006e4a90008482fb00048020009c
:1053100004827200240798004e009000de00900086
:105320006e0190000706070064024700110020008c
:1053300004007800680307000042780024479800c2
:105340004e009000de0090006e01900011060700f4
:105350002e429000e04f520002003a000002eb00a3
:105360002400370004802400240798004e00900099
:10537000de0090006e019000f20507006402470015
:105380001100200004007800530307000042780059
:10539000244798004e009000de0090006e019000bf
:1053a000fc0507002e429000e04f520002003a0038
:1053b0000002eb000f003700ae029000f40f200057
:1053c000848262006e4a90000482fb00848f520047
:1053d00002003200e4ff2f0006003700ee4a900082
:1053e00004c8b30004c26200044078000ef2b700a3
:1053f00014002000040078000080fa00000006007d
:105400000e00fa00300798004107980052079800f4
:10541000630798006022b8001407980025079800d9
:1054200004002500140798003e009000ce00900074
:105430005e019000c30507000e82e80021002000f5
:10544000040078002403070000427800044f78002d
:105450003e009000ce0090005e019000cd05070058
:105460001e427800e04f520002003a000002eb00ba
:10547000380037002e029000c822de001e02900085
:105480004822dd000482720024079800e4202100f5
:1054900014427800e04f5200160032002e029000b5
:1054a000e00f520006003d00ae029000f4ff27001e
:1054b00084826200040028000482420024079800cd
:1054c0002e029000050020000400be00a5ed07009c
:1054d0000002be0002002000033024000400be00d1
:1054e0000ced07000002be006e039000048bbe00ae
:1054f00017003700ae029000040021000482620011
:10550000e00f520006003200ae029000f4ff2e00c1
:105510008482620004002f00048242002407980065
:105520002e029000050020000400be008ded070053
:105530000002be0002002000031824000400be0088
:10554000f4ec07000002be006e039000048bbe0066
:1055500014002000040078000080fa00000006001b
:105560000400fa0020479800314798000534800075
:10557000f40f2c0084826200046020000482720018
:105580000434880015348000f40f2c0084826200fb
:1055900004502000048272001434880045368000d4
:1055a00004f82f0084826200240420000482720028
:1055b0004436880041e2a9000148a9002148a90019
:1055c0004382a9004362a9004342a8004322a800e5
:1055d0002e429000614262006142620061426200bc
:1055e0000482fb00610262004822dd001612800086
:1055f000f5ef2f0085026300048272001412880008
:105600002e4290000482fb00620262000482d100fc
:1056100004427800614262000482fb006102620081
:105620004622dd0016128000f5fb2f008502630084
:10563000048272001412880042e2a90042a2a8006b
:10564000141280000420a0000430a0000440a10037
:1056500014128800141280000400a1000410a0009d
:105660001412880040c2a90041e2a8000148a90024
:105670003e4290006142620061426200614262000b
:105680000482fb00610262004a22dd0006418000c4
:10569000f5bf2f0085026300048272000441880078
:1056a0000002eb00441288000002eb00040f7800b7
:1056b000070037001e0fe800843e20009e0278009d
:1056c000848f5200020034000042eb0007003700d4
:1056d0000412800061026200e00f5200f5ff320008
:1056e00044128000040f780014c0b3000440780016
:1056f0000080fa00000006000000fa00041280009a
:105700000402d10061426200044078000080fa0087
:10571000000006000400fa00100798001e02900026
:10572000441288000002eb00040f780007003700e5
:105730001e0fe800843e20009e027800848f5200f5
:1057400002003a000042eb0007003700041280001c
:1057500061026200e00f5200f5ff32004412800047
:10576000040f780014c0b300044078000080fa00f1
:10577000000006000600fa001007980021079800b4
:105780001e029000441288000002eb00040f780013
:10579000070037001e0fe800843e20009e027800bc
:1057a000848f520002003a000042eb0008003700ec
:1057b0000412800061026200e00f5200f5ff320027
:1057c000451280002e029000050a780014c0b30034
:1057d000044078000080fa00000006000800fa008b
:1057e00020079800310798000002eb00040f7800b2
:1057f0001d0037001e02780004024200ae02900035
:105800000482420014027800441288000002eb0077
:1058100014079800090037001e0290000402e800f7
:10582000140798009e029000843e2000848f52004e
:1058300002003a000042eb00100037000412800022
:1058400061026200e00f5200f3ff32001e02780096
:1058500004024200ae029000048242004512800021
:10586000050a78001e0fe8009e0278003e029000b4
:10587000848f5200dfff390014c0b3000440780069
:105880000080fa00000006000400fa00204798009b
:10589000314798001602a9000002eb00e4108800ce
:1058a0002e4290000482fb00d410880016c2a8008b
:1058b00016e2a9001702a9001722a9001742a900a1
:1058c0001762a9001782a80017a2a90084108000ff
:1058d000044f780018c2a9002628a9000628a900ac
:1058e0003e429000674262000482fb006702620051
:1058f0004422dd00c6428000f5f82f0085026300d7
:1059000004827200c44288002628a80017e2a8007a
:1059100014c0b300044078000080fa0000000600c4
:105920003600f800809fbe00829fbe00849fbe00ac
:10593000869fbe003200f800100020009001880011
:10594000000000000600fa00c510800004022000dc
:1059500004826200e00f520029003a000042eb008e
:1059600004407800d4f0b7000042eb000440780017
:1059700015f1b7000002eb00c4888800c410800055
:1059800064026200e00f520003003a0084108000bd
:105990004447980072003700841080004447980004
:1059a00054112100144278000483fb00550d21009e
:1059b00085024300954278008582fb00951088009f
:1059c0000442e8000440780015f1b7000002eb0043
:1059d000040f7800050037001e0fe8004406200081
:1059e0009e027800848f52005a003200c41080005a
:1059f00061026200e00f5200f7ff3a0058003700e2
:105a0000c410800064026200e00f520030003a00cf
:105a1000c48880000402e800c4888800c48880002c
:105a2000e10f520005003a00841080000442780023
:105a30000440780016f1b7000b003700440d210038
:105a4000144278008483fb00851080008542780032
:105a50004609210006834300054b78000442e80014
:105a600004407800d4f0b70064112100144278009b
:105a7000e34f52000a003a00c4888000ec0f520045
:105a800007003a0034c0b300044078001af1b700b0
:105a900027ed07000042eb00044078001af1b70040
:105aa0006411210014427800e24f52002c003a00a9
:105ab000c4888000ed0f520029003a00d3ed0700a2
:105ac0000042eb00044078001af1b70024003700d0
:105ad0008410800054479800c510800004002800fe
:105ae00004826200e00f52001d003a0054112100b0
:105af000144278000483fb00550d21008502430009
:105b0000954278008582fb00951088000442e800e9
:105b10000440780015f1b7000002eb00140798006c
:105b2000070037001e0290000402e80014079800e6
:105b30009e02900044062000848f5200070032002d
:105b4000c410800061026200e00f5200f5ff3a00cd
:105b500003003700000000000100370000000000d3
:105b6000b51080000400210004826200e00f5200a2
:105b700001003a001782a8000628a9000080fa0058
:105b80003200f9004f03be004f02be004f01be00bd
:0c5b90004f00be003600f9000040060087
:020000040000fa
:105b9c000a12000004000000820000000000000057
:105bac0000000000f811000012000000800000004e
:105bbc009e1100005a00000082000000400e4200be
:105bcc000e060000200e22000e020000200e220005
:105bdc000e030000400e42000e080000600e620032
:105bec000e0c0000300e32000e050000100e1200dc
:105bfc000e090000100e12000e050000000e02002f
:105c0c000e060000000e02000e040000100e120022
:105c1c000e0a0000300e32000e040000000e0200ce
:105c2c000e0f0000400e42000e000000400e42001d
:105c3c000e0100009410000088000000820000009b
:105c4c000000000000000000000000000000000048
